:020000040010EA
:1020000000D8FF3F1D6C1000596C10005B6C100075
:102010005D6C10005F6C1000616C1000000000002F
:102020000000000000000000000000000946100051
:10203000656C10000000000073461000A9461000F7
:10204000D15C10003D5E10006B6C100065571000F5
:102050006B6C10006B6C1000BD4E10006B6C1000B0
:102060006B6C10006B6C10006B6C10006B6C1000D4
:102070006B6C10006B6C10006B6C10006B6C1000C4
:102080006B6C10006B6C10006B6C10006B6C1000B4
:1020900000D8FF3F1D6C1000596C10005B6C1000E5
:1020A0005D6C10005F6C1000616C1000000000009F
:1020B00000000000000000000000000009461000C1
:1020C000656C10000000000073461000A946100067
:1020D000D15C10003D5E10006B6C10006557100065
:1020E0006B6C10006B6C1000BD4E10006B6C100020
:1020F0006B6C10006B6C10006B6C10006B6C100044
:102100006B6C10006B6C10006B6C10006B6C100033
:102110006B6C10006B6C10006B6C10006B6C100023
:10212000044B05481B1A062B02D9044B03B1184770
:10213000704700BF5F41FF3F5C41FF3F0000000070
:1021400005490648091A891001EBD171491002D0DE
:10215000034B03B1184770475C41FF3F5C41FF3FB1
:102160000000000010B5064C237843B9FFF7D8FFF4
:10217000044B13B10448AFF300800123237010BD5A
:102180005C41FF3F00000000C8DC100008B5084BB0
:102190001BB108490848AFF300800848036813B929
:1021A000BDE80840CCE7064B002BF9D09847F7E78D
:1021B000000000006041FF3FC8DC10005C41FF3FB1
:1021C0000000000000B583B001900091019B1B68E6
:1021D000B3F1FF3F04D124220E490F4802F03AFB2D
:1021E000009B002B09D0019BDB68019AD268126822
:1021F000019909680A431A6008E0019B1B69019A6A
:1022000012691268019909680A431A6000BF03B095
:102210005DF804FB64D11000BCD1100000B583B0A0
:1022200001900091019B1A46002313605360936054
:10223000D36013615361019B0099184602F058FC6A
:10224000019B184603B05DF804FB00BF00B583B0E6
:1022500001900091019B00991846FFF7B3FF00BF62
:1022600003B05DF804FB00BF00B583B00190074ADE
:10227000019B1A600023002B02D0019804F0FBFCA4
:10228000019B184603B05DF804FB00BF68D710003F
:1022900000B583B001900198FFF7E6FF019804F0C4
:1022A000EAFC019B184603B05DF804FB82B0019084
:1022B0000091019B009ADA6100BF02B0704700BF35
:1022C00000B583B001900B468DF8033013468DF8AE
:1022D00002309DF803200DF102010123019800F066
:1022E00009FA00BF03B05DF804FB00BF00B587B07A
:1022F0000590049103920293059B03F12C004FF08B
:10230000FF330093029B039A049904F0F3FA059BB0
:10231000403308991846FFF781FF059B099A1A6216
:10232000059B00225A60059B134A5A61059B4FF694
:10233000FF721A85059B2C3303220821184604F0EE
:1023400011FB059B2C330D49184604F023FB0A9919
:102350000598FFF7ABFF059B403301211846FFF7B7
:1023600075FF642002F050FC059800F01DF8059BF5
:10237000184607B05DF804FBCDCCCC4040420F00BE
:1023800000B583B001900B468DF803300DF10301C9
:1023900001230B22019800F0ADF9002002F024FC8B
:1023A00000BF03B05DF804FB00B583B001900121CC
:1023B0000198FFF7E5FF019800F028F80721019840
:1023C00000F0BCF8019B1B8D1946019800F0E6F85F
:1023D000019B5B691946019800F006F9062300226B
:1023E0000021019800F024F80021019800F064F821
:1023F000019B5B681946019800F07EF80021019866
:10240000FFF7BEFF00BF03B05DF804FB00B583B06B
:102410000190022205210198FFF752FF00220C21B2
:102420000198FFF74DFF00BF03B05DF804FB00BF4C
:1024300030B58BB00190084611461A4603468DF818
:1024400003300B468DF8023013468DF80130194BDE
:1024500002AC1D460FCD0FC495E80F0084E80F00B5
:102460009DF801309B000AAA134453F8202C019BCD
:102470009A609DF802309B000AAA134453F8202C5E
:10248000019BDA609DF80330DB01DAB29DF802307F
:102490001B01DBB21343DAB29DF801301343DBB208
:1024A000DBB21A4601210198FFF70AFF00BF0BB00B
:1024B00030BD00BFD4D1100000B585B001900B46EF
:1024C0008DF803300B4A03AB106818609DF8033099
:1024D00004AA134413F8042C019B9A709DF803304E
:1024E0001A4634210198FFF7EBFE00BF05B05DF8F6
:1024F00004FB00BFF4D1100000B585B0019000913D
:10250000019B009A5A60009B1B0AADF80E30BDF883
:102510000E30DBB21A4632210198FFF7D1FEBDF82A
:102520000E301B0A9BB2DBB21A4633210198FFF72B
:10253000C7FE00BF05B05DF804FB00BF10B588B052
:1025400001900B468DF80330134B04AC18685968A2
:102550009A68DB680FC49DF803305B0008AA134437
:1025600033F8102C019B1A8003A90123042201983F
:1025700000F082F89DF80C3023F00703DAB29DF8E2
:1025800003301344DBB21A4604210198FFF798FE8A
:1025900000BF08B010BD00BFF8D1100000B585B075
:1025A00001900B46ADF80230019BBDF802201A8560
:1025B000BDF802308DF80F30BDF802301B0A9BB217
:1025C0008DF80E309DF80F301A4630210198FFF734
:1025D00077FE9DF80E301A4631210198FFF770FE04
:1025E00000BF05B05DF804FB00B585B00190009117
:1025F00003A901230422019800F03EF800994FF04E
:10260000824005F0AFFB034619464FF0834005F0CA
:10261000EBF90346184605F067FC03468DF80F30CA
:102620009DF80F301B01DAB29DF80C3003F00F0358
:10263000DBB21344DBB21A4604210198FFF740FED7
:1026400000BF05B05DF804FB00B585B0019003A99B
:1026500002232122019800F00FF89DF80D301B0293
:102660009AB29DF80C309BB213439BB29BB21846B2
:1026700005B05DF804FB00BF10B586B00390029171
:1026800011461A460B468DF8073013468DF8063072
:10269000039B403300211846FFF7D8FD039B03F14D
:1026A0002C029DF8073063F07F03DBB21946104619
:1026B00004F0A6F9002305939DF80620059B9A4295
:1026C0000FDD059B029AD418039B2C33FF2118467B
:1026D00004F096F90346DBB22370059B01330593A2
:1026E000EAE7039B403301211846FFF7AFFD00BF27
:1026F00006B010BD00B587B00390029111461A468E
:102700000B468DF8073013468DF80630039B403397
:1027100000211846FFF79AFD039B2C339DF80720F4
:102720001146184604F06CF9002305939DF8062025
:10273000059B9A420DDD039B03F12C00059B029A39
:1027400013441B78194604F05BF9059B013305938C
:10275000ECE7039B403301211846FFF777FD00BFEC
:1027600007B05DF804FB00BF00B583B00190074AD5
:10277000019B1A600023002B02D0019804F07BFA21
:10278000019B184603B05DF804FB00BF18D210008F
:1027900000B583B001900198FFF7E6FF019804F0BF
:1027A0006AFA019B184603B05DF804FB10B586B0C9
:1027B000582004F062FA03461C460E4B02930E4B5F
:1027C00001934FF4804300931023402220212046A0
:1027D000FFF78CFD05944FF0804002F0EFF905986B
:1027E000FFF732FF03461A460449054804F0E4F9AE
:1027F000F5E700BF0024744BFFF0032F08D2100050
:102800001844FF3F10B582B00190054C054B9C4227
:1028100004D0183C204604F080FAF7E702B010BD5F
:102820001043FF3F9041FF3FF0B589B00390029104
:10283000039B012B40F09A80029B4FF6FF7293425C
:1028400040F0948004AB184604F028FA04AB1A4612
:102850004849494804F08CFA04AB184604F01FFAC2
:10286000464A4749444804F001FA464B07241E46AD
:10287000B4F1FF3F0ED0334601251F46B5F1FF3FAF
:1028800005D0384604F042FA1837013DF6E73036F5
:10289000013CEDE7394A3C49002004F0E7F905AB7B
:1028A000184604F0FBF905AB1A463249374804F0E4
:1028B0005FFA05AB184604F0F2F9304A3049334864
:1028C00004F0D4F906AB184604F0E8F906AB1A4652
:1028D00028492F4804F04CFA06AB184604F0DFF9FB
:1028E000264A27492A4804F0C1F907AB184604F0E4
:1028F000D5F907AB1A461F49264804F039FA07AB49
:10290000184604F0CCF91D4A1D49224804F0AEF9DE
:102910004FF0FF3300931023402220211E4803F084
:10292000E9FF164A1D491C4804F0A0F900230222C1
:1029300001211B4803F028FF104A1A49184804F0E7
:1029400095F9194800F0DCF80C4A1849164804F0CB
:102950008DF900234FF400724FF48071144803F096
:1029600013FF064A0F49124804F080F900BF09B06E
:10297000F0BD00BF0CD210007841FF3F0040FF3F88
:102980001B6D10009041FF3F052810001043FF3FD2
:102990002843FF3F4043FF3F5843FF3F6922100059
:1029A0006C43FF3FB5291000C443FF3F4D2B10007F
:1029B000D843FF3F00B583B001900E4A019B1A60D7
:1029C0000D4A019B1A640D4A019B5A64019B4033D6
:1029D000184604F059F8019B1846FFF7C5FE00237E
:1029E000002B02D0019804F046F9019B184603B071
:1029F0005DF804FB0CD7100024D7100058D7100046
:102A0000A0F14000D6E700BFA0F14400D2E700BF2C
:102A100000B583B001900198FFF7CCFF019804F056
:102A20002AF9019B184603B05DF804FBA0F14000B1
:102A3000EEE700BFA0F14400EAE700BF08B54FF69B
:102A4000FF710120FFF7F0FE08BD00BF00B583B0A5
:102A50000A4A0B4BD31A0193019B1A4600210848DE
:102A600005F01CFE01F086FD05F05EFD02F0CEFBD8
:102A700003F040FE0090009805F070FA2852FF3FE6
:102A80005C41FF3F00B583B00190019B022B01DC4C
:102A9000012303E0019803F0C3FD0346184603B089
:102AA0005DF804FB82B0EFF305830193019B002BDB
:102AB00000D000BE00BF02B0704700BF00B583B0B9
:102AC0000190FFF7EFFF019805F0A4FD03461846BB
:102AD00003B05DF804FB00BF00B583B00190FFF7C1
:102AE000E1FF019805F09EFD00BF03B05DF804FB17
:102AF00008B5012005F032FA08B5FFF7F9FF00BF6D
:102B000000B583B00190019B08330C2200211846C8
:102B100005F0C4FD019B03F10802019B5A60019B73
:102B20000433184600F04AFB0246019B1A60019BE1
:102B30001B68002B02D1044803F0FCF9019B1846E6
:102B400003B05DF804FB00BF20D2100000B583B0D5
:102B50000190019B1B68184600F05CFB019B184626
:102B600003B05DF804FB00BF84B00190019BB3F19A
:102B7000FF3F02D14FF6FF731DE0019B0F4A9342C6
:102B800002D94FF6FE7316E0019B4FF47A7202FBF6
:102B900003F20B4B1B6813445A1E094B1B68B2FB14
:102BA000F3F30393039B4FF6FE72934202D94FF661
:102BB000FE7300E0039B184604B0704700093D0017
:102BC00054D2100084B00190019B002B01D100234E
:102BD0000FE0019B03F00303002B01D0002308E06A
:102BE000019B0393039B1B78002B01D0002300E083
:102BF000039B184604B0704782B00190019B03F01C
:102C00000303002B01D0002300E0019B184602B013
:102C1000704700BF08B50A4B1B78002B01D000237A
:102C20000CE001F0F3FB074B1B68FF229A700020B9
:102C300001F086FC024B01221A700023184608BDE1
:102C4000D046FF3F0C47FF3F00B583B0164B1B78C3
:102C5000002B01D0002322E00021144800F0F4FAF8
:102C60000246134B1A600021124800F0ADF80246EC
:102C7000114B1A600021002001F00EFB0F4B1B6866
:102C80009B6A20330193019B83F309880B4B00223D
:102C90001A6001F01FFC044B01221A700023184631
:102CA00003B05DF804FB00BFD146FF3F4840FF3F43
:102CB000D447FF3F0440FF3FD047FF3F0C47FF3F53
:102CC00010B582B0EFF305840094009C002C01D075
:102CD000822310E0EFF314840194019C04F00104BA
:102CE000002C03D1FFF796FF034604E0DFF80CC089
:102CF00000DF034600BF184602B010BD152C1000BF
:102D000010B58EB0EFF305840894089C002C01D018
:102D1000822351E0EFF314840D940D9C04F003041E
:102D2000032C44D80FF2040E5EF824F03D2D100061
:102D3000752D1000792D1000992D10006C4620344F
:102D40000C940C9C84F309881D4C247804F0010435
:102D5000002C05D002240B940B9C84F3148804E00F
:102D600003240A940A9C84F31488BFF34F8FBFF3A3
:102D70006F8F1CE0FF231FE0114C247804F0010446
:102D8000002C11D103240994099C84F31488BFF307
:102D90004F8FBFF36F8F07E0094C247804F00104D4
:102DA000002C03D0FF2307E000BF00E000BFDFF8E6
:102DB00014C000DF034600BF18460EB010BD00BFB0
:102DC00050D21000492C100000B587B0019000913E
:102DD000019B002B16D0019B1B68002B12D0019B7E
:102DE0009B881BB213F1030F0CDB019B9B881BB26A
:102DF000032B07DC019B9B68002B03D0019BDB6846
:102E0000002B04D1802001F09BFB002338E0019BC4
:102E10009B88DBB204338DF81730019B1033049389
:102E2000019BDA68049BDA62019B9A68049B5A62F0
:102E300001F060F90390039B013B1349049A41F8A8
:102E40002320039BDAB2049BDA70049B009ADA61B8
:102E5000019B1A689DF817301946049801F068F92B
:102E6000049801F0A9F9039B013B074A52F823306B
:102E70000293029B9B6A34331A46044B1360029BF5
:102E8000184607B05DF804FBF84FFF3F592F1000BC
:102E900000B583B001F0F2F90190019B002B01D144
:102EA000002304E0019B013B034A52F823301846FB
:102EB00003B05DF804FB00BFF84FFF3F00B585B0DD
:102EC00001900198FFF77EFE0390039B002B01D138
:102ED00080230BE0039BDB78184601F03DFA02905B
:102EE000029BFF2B01D1812300E00023184605B08F
:102EF0005DF804FB00B587B001900091EFF3058108
:102F000003910399002901D000231CE0EFF3148101
:102F10000591059901F00101002909D10C490978B1
:102F2000002905D100990198FFF74EFF03460AE0FA
:102F3000019904910099029104980299DFF814C054
:102F400000DF034600BF184607B05DF804FB00BF72
:102F5000D146FF3FC92D100000B583B0DFF810C087
:102F600000DF01900198DFF80CC000DFFEE70000F1
:102F7000912E1000BD2E100084B00190009100230E
:102F800002931C4B1B68039310E0039B1B891A469A
:102F9000009B9A420ED8039B1B891A46009B9B1AE2
:102FA0000093039B0293039B1B680393039B002BDB
:102FB000EBD100E000BF019B039A1A60009B9AB21C
:102FC000019B1A81039B002B07D0039B1A89019B4D
:102FD0001B89D31A9AB2039B1A81029B002B03D040
:102FE000029B019A1A6002E0024A019B136000BF33
:102FF00004B07047D446FF3F10B586B001900198E9
:10300000FFF7FAFD0590059B002B0ED100230393DB
:1030100000230493039B1946049B1A464FF00003B8
:103020004FF000040B46144610E0059B1B691B681B
:103030000393059BDB680493039B1946049B1A4684
:103040004FF000034FF000040B461446184621468B
:1030500006B010BD00B583B01A4B1B680193019BED
:10306000002B2BD0019B1B89013B9AB2019B1A813B
:103070001CE0019B0093019B1B680193114A019B7B
:103080001360114B1B6800990022184600F06EF97E
:10309000009B5B79012B06D1009B5B891946009848
:1030A000FFF76AFF02E0009B01221A71019B002BCF
:1030B00005D0019B1B89002BDBD000E000BF03B0D3
:1030C0005DF804FBD446FF3FD447FF3F00B585B011
:1030D00001900091009803900398DFF81CC000DF76
:1030E0000B461A46019B1860019B5A6000BF01986D
:1030F00005B05DF804FB0000F92F100000B589B0A1
:1031000001900C4B196803AB4FF0FF32184600F0EA
:1031100097F9039B102BF4D1049A06AB114618467D
:10312000FFF7D4FF069B002BEBD0069B079A1046B7
:103130009847E6E7D447FF3F00B585B00190019B73
:10314000002B04D1802001F0FBF9002317E0019B44
:103150001B680393039B002B04D1802001F0F0F93E
:1031600000230CE0039B1B78002B04D0802001F08F
:10317000E7F9002303E0039800F006FE039B1846DE
:1031800005B05DF804FB00BF00B585B00190019863
:10319000FFF732FD0390039B002B01D1802309E050
:1031A000039B1B78032B01D0802303E0039800F0DE
:1031B00001FE0023184605B05DF804FB00B587B09A
:1031C0000190EFF3058003900398002801D00023BD
:1031D00018E0EFF314800590059800F00100002836
:1031E00008D10A480078002804D10198FFF7A4FF0D
:1031F000034607E0019804900498DFF814C000DF4C
:10320000034600BF184607B05DF804FBD146FF3FF8
:103210003931100000B585B00190EFF305800290C0
:103220000298002801D0822307E0019803900398B8
:10323000DFF810C000DF034600BF184605B05DF898
:1032400004FB00008931100000B583B001900091AB
:10325000019B002B07D0019B1B68002B03D0019B17
:103260005B68002B04D1802001F06AF9002317E08D
:10327000019B5B681B78002B04D0802001F060F973
:1032800000230DE0019B5A68019B1B6804339BB22D
:103290009B009BB21946104600F074FB019B5B68D3
:1032A000184603B05DF804FB2DE9F04786B00190A5
:1032B0000091019B002B0CD180230293029A0023E2
:1032C00000240025002613461F46A046A946B24604
:1032D00041E0019B1B78012B0CD080230293029AC2
:1032E000002300240025002613461F46A046A946B9
:1032F000B24630E00098FFF737FC03469AB202ABC3
:1033000004331946019800F063FB0590059B012BDF
:1033100013D1009B002B01D0402300E00023029337
:103320000299039A00230024002500260B46144628
:103330001F46A046A946B2460DE01023029302990B
:10334000039A00230024002500260B4614461F463E
:10335000A046A946B2463B4644464D465646184608
:1033600021462A46334606B0BDE8F08700B585B051
:10337000039002910192039B002B02D0019B002B32
:1033800001D0802313E0039B1B78012B01D0802305
:103390000DE0039800F0AAFB0346002B01D1812326
:1033A00005E0029B1946039800F0AEFB0023184687
:1033B00005B05DF804FB00BF10B588B00390029122
:1033C0000192029B002B02D0019B002B09D080238D
:1033D0000493039B1C4604AB93E8070084E80700B2
:1033E0002AE0029B1B78012B09D080230493039BC6
:1033F0001C4604AB93E8070084E807001CE004AB1C
:1034000004331946029800F091FB0790079B042BA8
:1034100009D000230493039B1C4604AB93E80700E8
:1034200084E8070008E010230493039B1C4604ABC8
:1034300093E8070084E80700039808B010BD00BFB8
:1034400000B589B0039002910192EFF305810691D6
:103450000699002906D0039B019A02991846FFF7A6
:10346000ABFF13E00299079101990591079805991F
:10347000DFF820C000DF0346184613461A46039BB8
:103480001860039B5960039B9A6000BF039809B0C2
:103490005DF804FBA932100000B585B001900B4621
:1034A000ADF80230019B1A8BBDF8023013439AB27B
:1034B000019B1A83019B5B8BADF80E30019B5B78FF
:1034C000062B09D1019B1A8BBDF80E3013409BB21D
:1034D000BDF80E209A4214D0019B5B78052B2ED1AB
:1034E000019B1A8BBDF80E3013409BB2002B26D0E7
:1034F000019B5A8B019B1B8B13409AB2019B5A83F1
:1035000000E000BF019B1B8B9AB2BDF80E30DB437D
:103510009BB213409BB29AB2019B1A83019800F0B0
:10352000DBF9019B01225A70019B5B8B1A46082133
:10353000019801F039F90199034800F031F800BF12
:1035400005B05DF804FB00BFD846FF3F88B003908C
:1035500002910192EFF31083059372B6029B1B78E0
:103560000793079A039B9A4215D2079BDBB201335C
:10357000DAB2029B1A70019B1B780793079B0133F9
:103580000693069A039B9A4201D100230693069B59
:10359000DAB2019B1A7062B6079B184608B07047F2
:1035A00086B00190009100230493019B1B78022BAD
:1035B00007D0019B1B78012B03D0019B1B78032BA9
:1035C00001D101230493009B9B780393019B5B68CB
:1035D000059304E0059B0193059B5B680593059BA0
:1035E000002B05D0059B9B781A46039B9A42F1D28B
:1035F000009B059A5A60019B009A5A60049B002B1D
:1036000009D0059B002B02D0059B009A9A60009B75
:10361000019A9A6002E0009B00229A6000BF06B007
:10362000704700BF84B00190019B5B680393039BCC
:103630005A68019B5A60019B1B78022B07D0019BA3
:103640001B78012B03D0019B1B78032B0ED1039B0E
:103650005B68002B06D0039B5B68019A9A60039B12
:1036600000225A60039B00229A6002E0039B002222
:103670005A60039B184604B0704700BF82B00190A7
:10368000064B5A68019B5A60019B00229A60034ACC
:10369000019B536000BF02B0704700BFD846FF3F98
:1036A00000B585B00190019B9B68002B06D1019B62
:1036B0005B78012B14D10C4B03930AE0019B9B68B0
:1036C000039302E0039B9B680393039B1B78002BEF
:1036D000F8D0019800F0D2F801990398FFF760FF45
:1036E00000BF05B05DF804FBD846FF3F86B00190EF
:1036F0000B46ADF80230BDF8023003932B4B059317
:10370000059BDB68002B02D10023049307E0274BC5
:103710009B8A049321E0059BDB68002B14D1019B5D
:103720000022DA60059B019ADA60019B059A1A6112
:10373000039B9AB2049B9BB2D31A9AB2059B9A82BE
:10374000019B00229A822EE0059BDB680593059B76
:103750009B8A1A46049B13440493049A039B9A423F
:10376000D9D3059BDA68019BDA60059B019ADA6080
:10377000019B059A1A61019BDB68002B03D0019B1A
:10378000DB68019A1A61049B9AB2039B9BB2D31A1D
:103790009AB2019B9A82059B9A8A019B9B8AD31AB3
:1037A0009AB2059B9A8206B0704700BFF046FF3F71
:1037B00000B583B02E4BDB68002B54D02C4B9B8A7A
:1037C000013B9AB22A4B9A8244E0294BDB68019371
:1037D000019B9B68002B13D0019B9B68019A526848
:1037E0005A60019B5B68002B07D0019B5B68019AC4
:1037F00092689A60019B00225A60019B00229A60A5
:1038000001991C48FFF7CCFE019B9A8A184B9A82BB
:10381000019B5B78042B08D1019BDA8A164B1B684D
:103820009BB213449AB2019B9A82019B01225A7067
:10383000019BDB680E4AD360019BDB68002B06D03E
:10384000019BDB680A4A1A61019B0022DA60019B36
:1038500000221A61064B9B8A002B05D1044BDB68C2
:10386000002BB2D100E000BF03B05DF804FB00BF45
:10387000F046FF3FD846FF3F4847FF3F84B00190E6
:10388000019B9B68002B0ED0019B9B68019A52689C
:103890005A60019B5B68002B19D0019B5B68019A01
:1038A00092689A6013E00B4B03930CE0039B5A68F9
:1038B000019B9A4204D1019B5A68039B5A6007E01E
:1038C000039B5B680393039B002BEFD100E000BFD9
:1038D00004B07047D846FF3F84B00190019B1B693C
:1038E0000393039B002B1DD0019BDA68039BDA60D6
:1038F000019BDB68002B0FD0039B9A8A019B9B8A5C
:1039000013449AB2039B9A82019BDB68039A1A6163
:10391000019B0022DA6002E0039B00229A82019B55
:1039200000221A6100BF04B0704700BF00B585B027
:1039300001900091114BDB781846114B0F4A194644
:10394000FFF704FE03900D4BDB781A46039B9A4267
:103950000CD90A4A039BDB001344019A5A60074AB8
:10396000039BDB001344009A9A6002E0022000F0FF
:10397000DDFD00BF05B05DF804FB00BF4C47FF3F15
:103980004E47FF3F84B001900B46ADF80230019BDB
:103990000393039B01221A70039B00225A70039B1E
:1039A00000229A70039B00225A60039B00221A8116
:1039B000039B00225A81039B00229A81BDF80230AA
:1039C000103B9B089AB2039BDA8100BF04B070479A
:1039D00000B589B0039002911346ADF80630039B01
:1039E0000793079B9B89002B53D0079B5B891A4643
:1039F000079B043253F82220029B1A60079B5B89C5
:103A000001339AB2079B5A81079B5A89079BDB892E
:103A10009A4202D1079B00225A81079B5B68002BC8
:103A20002AD0079B5B78022B26D10798FFF7FAFD77
:103A300006900021069800F0A7FE079B1B891A46F6
:103A4000069BD969079B043243F82210079B1B8908
:103A500001339AB2079B1A81079B1A89079BDB895E
:103A60009A4202D1079B00221A810698FFF734FF81
:103A7000069800F0A1FB0AE0EFF31083059372B6FD
:103A8000079B9B89013B9AB2079B9A8162B60023F0
:103A900026E0BDF80630002B01D1012320E0079B72
:103AA0005B68002B06D0104B1B6819460798FFF780
:103AB00077FD0EE00C4B1A68079B5A600A4B1B6897
:103AC00000225A60084B1B68079A9A60079B0122E4
:103AD0005A70BDF806300821184600F09FFB0123FC
:103AE000184609B05DF804FB0C47FF3F84B0019015
:103AF000019B0393039BDB891A46039B9B89D31A83
:103B0000184604B0704700BF00B585B00190009121
:103B1000019B0393009B19460398FFF707FF00F0F2
:103B2000E1F900BF05B05DF804FB00BF00B585B04A
:103B300001900091019B0393039B9B89002B2ED046
:103B4000039B5B891A46039B043253F82220009B97
:103B50001A60039B5B78022B05D100210398FFF7C5
:103B6000E5FE00F0BFF9EFF31083029372B6039BFA
:103B70009B89013B9AB2039B9A8162B6039B5B8946
:103B800001339AB2039B5A81039B5A89039BDB89B9
:103B90009A4202D1039B00225A81042300E00023B1
:103BA000184605B05DF804FB00B587B001900091A0
:103BB000019B5B68002B70D0019B5B78022B20D0AF
:103BC000032B02D0012B52D095E0009800F09AF818
:103BD0000590059B002B00F08D800198FFF722FDDA
:103BE0000490059B1946049800F0CEFD049B012229
:103BF0005A700498FFF770FE04994148FFF7D0FC13
:103C000079E00198FFF70EFD04900021049800F080
:103C1000BBFD019B1B891A46049BD969019B043299
:103C200043F82210EFF31083039372B6019B9B8934
:103C300001339AB2019B9A8162B6019B1B890133C1
:103C40009AB2019B1A81019B1A89019BDB899A42D6
:103C500002D1019B00221A81049B01225A70049810
:103C6000FFF73AFE04992648FFF79AFC43E00198D3
:103C7000FFF7D8FC0490009B1A461021049800F02E
:103C800093FD049B01225A700498FFF725FE0499C6
:103C90001B48FFF785FC00BF2DE0019B9A89019B23
:103CA000DB899A4222D2019B1B891A46019B04326E
:103CB000009943F82210EFF31083029372B6019B30
:103CC0009B8901339AB2019B9A8162B6019B1B8941
:103CD00001339AB2019B1A81019B1A89019BDB89EE
:103CE0009A4208D1019B00221A8104E0032000F0CF
:103CF0001DFC00E000BF00BF07B05DF804FB00BF83
:103D0000D846FF3F86B00190EFF31083039372B65D
:103D1000039B03F001030593019B1B680493049B21
:103D2000002B03D0049B1A68019B1A60059B002B93
:103D300000D162B6049B184606B0704784B001906B
:103D40000091009A019B9A4204D3019B5A68009B00
:103D50009A4201D8012313E0EFF31083029372B665
:103D6000029B03F001030393019B1A68009B1A60F6
:103D7000019B009A1A60039B002B00D162B60023BE
:103D8000184604B0704700BF84B00190019B0393B4
:103D9000039B03221A70039B00225A70039B00228C
:103DA0005A80039B00225A60039B00229A6000BF46
:103DB00004B0704700B585B00190019B0393039B4D
:103DC0005B88002B22D0039B9B68039A52789A70E1
:103DD000039B9A68204B1B689A4217D0039B9B68F1
:103DE0001846FFF75DFC11E00398FFF71BFC0290FB
:103DF0000021029800F0C8FC0298FFF76DFD029BBD
:103E000001225A7002991548FFF7CAFB039B5B68B1
:103E1000002BE9D1114B5B68002B14D00F4B5B6872
:103E20009A780D4B1B689B789A420CD90A4B1B68F9
:103E300019460A48FFF7B4FB074B1B6801225A706A
:103E4000002000F0B9F9039B00221A7000231846E5
:103E500005B05DF804FB00BF0C47FF3FD846FF3FAD
:103E600000B585B00190019B5B68002B12D00198D2
:103E7000FFF7D8FB03900398FFF72EFD039B012269
:103E80005A700121039800F07FFC03990648FFF760
:103E900087FB05E0019B5B8801339AB2019B5A8046
:103EA00000BF05B05DF804FBD846FF3F084A094B48
:103EB0001B681360084B00221A60084B07221A6027
:103EC000074A074B1B6843F07F43136000BF7047EE
:103ED00014E000E04CD2100018E000E010E000E038
:103EE00020ED00E0074B1B78DBB2002B04D1064B22
:103EF0004FF080521A6002E0044B01221A7000BF9A
:103F0000704700BF3044FF3F04ED00E03144FF3F05
:103F100000B585B02D4B1B6801225A702B4B1B68D6
:103F20001846FFF7ABFB2A4B5B7803933AE0284A2D
:103F3000039BDB0013445B680293029B1B78002BFE
:103F40000AD1234A039BDB0013449B689BB21946AA
:103F50000298FFF7A1FA10E0029B1B78012B09D110
:103F60001B4A039BDB0013449B6819460298FFF72A
:103F70001BFE02E00298FFF773FF039B01330393DC
:103F8000134BDB781A46039B934201D10023039322
:103F9000EFF31083019372B60E4B1A78013AD2B246
:103FA0001A7062B60A4B9B78002BC0D1084B039A5B
:103FB000D2B25A700848FFF735FB0090009800F025
:103FC000EDF800BF05B05DF804FB00BF0C47FF3FF4
:103FD0004C47FF3F4E47FF3FD846FF3F08B5FFF72E
:103FE00065FF4FF0FF33184608BD00BF00BF7047A4
:103FF00000B583B00F4B1B6801225A700D4B1B6834
:104000001846FFF73BFB00F0F1FB0B4B1B6801333D
:10401000094A1360FFF7CCFBFFF71CF80748FFF7CE
:1040200001FB0190019800F0B9F800BF03B05DF802
:1040300004FB00BF0C47FF3F4847FF3FD846FF3F08
:1040400008B50C4B1B68DB78012B11D0094B1B68A2
:104050009B6A084A1268D26A934206D3054B1B68D2
:10406000DB6A1B68044A934202D0012000F05EFA2A
:1040700000BF08BD0C47FF3FA52E5AE284B01A4A84
:10408000194B1B6843F47F031360174B1B681B021B
:1040900003F07F43DB430193019BB3FA83F38DF875
:1040A00003309DF80330C3F1080303930F4B1B68E3
:1040B0001B0A03F007030293029A039B9A4202DB56
:1040C000029B013303930A496FF08072039B02FA4B
:1040D00003F303F07F42064B1B6823F07F43134337
:1040E0000B6000BF04B0704720ED00E00CED00E075
:1040F0001CED00E082B0012301930BE0019B013B2A
:10410000094A52F82330002B01D1019B09E0019BA1
:1041100001330193054B1B881A46019B9A42EDD24D
:104120000023184602B07047F84FFF3F46D21000F8
:1041300000B585B003900B4601928DF80B30039BC0
:1041400000221A70039B01225A70039B9DF80B20DA
:104150009A70039B00225A60039B00229A60039B83
:104160000022DA60039B00221A61039B00229A82DC
:10417000039B0022DA82039B00221A83039B002206
:104180005A83039B002283F820200199039800F0B2
:10419000ABFA00BF05B05DF804FB00BF82B0019030
:1041A000044A019B5360019B02225A7000BF02B077
:1041B000704700BF0C47FF3F00B583B00190019BE3
:1041C000002B07D11348FFF72DFA01900198FFF754
:1041D000E5FF1AE0019B9A780F4B1B689B789A4287
:1041E0000CD90D4B1B681846FFF748FA0A4B1B68A1
:1041F00001225A700198FFF7D1FF06E0019B0122CE
:104200005A7001990348FFF7CBF900BF03B05DF87E
:1042100004FB00BFD846FF3F0C47FF3F00B585B009
:1042200003460A46ADF8063013468DF80530BDF852
:104230000630002B19D0BDF806304FF6FF729342BE
:1042400007D00C4B1B68BDF8062011461846FFF737
:104250004DFA084B1B689DF805205A700648FFF779
:10426000E1F903900398FFF799FF00BF05B05DF8EF
:1042700004FB00BF0C47FF3FD846FF3F054B1B68C0
:10428000002B01D1002302E0024B1B68DB781846AB
:10429000704700BF0C47FF3F00B585B001900B464B
:1042A0008DF80330019B002B1CD1274B1B689DF818
:1042B00003209A7000E000BF244B5B689B789DF858
:1042C00003209A420CD2204B1B6819461F48FFF767
:1042D00067F91D4B1B6801225A700020FFF76CFF25
:1042E00000232CE01A4B1B881A46019B9A4206D3E6
:1042F000019B013B174A52F82330002B01D1FF23C9
:104300001DE0019B013B134A52F823300393039BAA
:104310009DF803209A700C4B1A68039B9A42CAD0EE
:104320000398FFF7BDF9039B5B78012B06D1074883
:10433000FFF778F903900398FFF73EFF0023184634
:1043400005B05DF804FB00BF0C47FF3FD846FF3FB8
:1043500046D21000F84FFF3F10B584B00190019B8A
:10436000002B06D0264B1B68DB781A46019B9A422D
:104370001ED1234B1B6800225A70214B1C6800F091
:1043800018F90346A362FFF75BFE1D4B1B68DB7841
:10439000013B1C4A002142F82310194B1B680022E4
:1043A000DA62174B00221A600020FFF705FF23E0B6
:1043B000154B1B881A46019B9A4206D3019B013B71
:1043C000104A52F82330002B01D1FF2315E0019B46
:1043D000013B0C4A52F8233003930398FFF74EFA3F
:1043E0000398FFF779FA019B013B064A002142F846
:1043F0002310039B0022DA620023184604B010BD8C
:104400000C47FF3FF84FFF3F46D2100000B583B086
:104410000023019307E0244A019B002142F8231066
:10442000019B01330193214B1B881A46019B9A4241
:10443000F1D81F4BFF22DA701E4B1B881A461C4B0B
:104440005A621B4B1C4ADA621C4A00211848FFF7CB
:104450006FFE1B4B04221A70194B00225A60194B35
:1044600004221A70174B0022DA60164B00221A61E0
:10447000144B00229A82144B0D4A1A60124B1B688F
:1044800002225A70114B00221A70104B00225A70EF
:104490000E4B0F4A1278DA7000F09AF9FFF7EEFD32
:1044A00000BF03B05DF804FBF84FFF3F46D2100099
:1044B0001447FF3F58D210001050FF3F2145100015
:1044C000D846FF3FF046FF3F0C47FF3F4C47FF3FBA
:1044D0005AD2100008B5FFF781FD02460F4B1A6053
:1044E0000E4B1B68002B17DB0C4B1B6803F1604362
:1044F00003F56443FF221A70084B1B685B119B0095
:1045000003F1604303F56143044A126802F01F029D
:10451000012101FA02F21A6000BF08BD0847FF3FFF
:1045200008B500F0D9F800BF08BD00BF00B583B0E2
:10453000019000F0A1F900BF03B05DF804FB00BFDB
:1045400000B583B00190019B002B01D000F094F9DD
:1045500000BF03B05DF804FB0349044B044A5B1A37
:104560009360D160704700BF2852FF3F00D4FF3FE7
:104570005040FF3F0020002104460D46094803F04B
:10458000D3FC03F0D1FF20462946FEF799FBFFF745
:10459000E3FF05480021FEF7ADFCFEF7B1FB03F099
:1045A000DDFC0000198310005040FF3F80F30988B4
:1045B0007047EFF309807047684680F309883F48E9
:1045C0000078C00714BF0220032080F314887047CE
:1045D000DFF8ECC0EFF305831B0618BF6047EFF36D
:1045E0001483DB0708BF604700DF7047DFF8D4C0E3
:1045F000EFF305831B0618BF6047EFF31483DB0757
:1046000008BF604700DF7047EFF30980816911F848
:10461000021CF1B990E80F10E047EFF3098C8CE829
:104620000700294B93E8060091420FD039B12CE9DD
:10463000F00FC1F828C00CB4FFF702FD0CBC1A60E3
:10464000D2F828C0BCE8F00F8CF309886FF0020E96
:10465000704710B51D4A1268914209D81C4C54F895
:10466000214090E80F10A047EFF3098C8CE80F0071
:1046700010BDFFF74DFC144B93E80600914210D09B
:10468000EFF3098C2CE9F00FC1F828C00CB4FFF748
:10469000D7FC0CBC1A60D2F828C0BCE8F00F8CF331
:1046A00009886FF0020E7047FFF7A2FCFFF7E3BF27
:1046B000FFF79CFCFFF79CFCFFF7DDBF50D210001A
:1046C000053D10003D3D10000C47FF3F000000007D
:1046D000FCFFFFFF00BF704708B5024B1B689847FF
:1046E000FBE700BF9440FF3F86B001900091019B23
:1046F0005B6A9B080393019BDA6A039B9B0013444C
:104700000593059B03F00403002B02D0059B043B9B
:104710000593059B403B0593059B3C334FF080720E
:104720001A60059B3833009A1A600023049308E04E
:10473000049B9B00059A134400221A60049B0133DA
:104740000493049B0D2BF3D9059B2033019AD26966
:104750001A60059A019B9A62019B009A1A63019B59
:10476000DB78012B03D0019BDB6A024A1A6000BF91
:1047700006B07047A52E5AE282B00190019B9B6A59
:104780002033184602B0704700B585B00190009103
:104790000198FFF7F1FF0390039B009A1A6000BF96
:1047A00005B05DF804FB00BF00B587B0039002912F
:1047B00001920398FFF7E0FF0590059B029A1A60AB
:1047C000059B0433019A1A6000BF07B05DF804FB33
:1047D000044B00221A60044B1B689AB2014BDA802A
:1047E00000BF70471052FF3F48D2100000B583B0A1
:1047F000154B1A68154B5B689A420ED0134B5B68D9
:10480000114A1360124B1B689AB20F4BDB8813449A
:104810009BB2013B9AB20C4B9A800B4B9B881A4679
:104820000B4B1B689BB29A420AD1074B00221A60BD
:104830000648FEF7F7FE019001990448FEF7B0FE26
:1048400000BF03B05DF804FB1052FF3FD846FF3FA6
:104850004847FF3F00B585B0039002910192019B4C
:10486000029A0399034801F065FB00BF05B05DF8AB
:1048700004FB00BF5CD2100008B572B6962000F0B1
:10488000B3F9962000F0B0F9F8E700BF00B583B0A7
:1048900001900091019B1B68B3F1FF3F04D12422DA
:1048A0000E490F48FFF7D6FF009B002B09D0019B54
:1048B000DB68019AD2681268019909680A431A6094
:1048C00008E0019B1B69019A126912680199096845
:1048D0000A431A6000BF03B05DF804FB90D21000D9
:1048E000DCD2100082B00190019B012B03D12D4B33
:1048F00005221A6052E0019B022B03D1294B0522AD
:104900001A604BE0019B102B03D1264B05221A6144
:1049100044E0019B202B03D1224B05225A613DE04C
:10492000019B402B03D11F4B05229A6136E0019B6E
:10493000B3F5006F03D11B4B0522DA622EE0019B19
:10494000B3F5805F03D1174B05221A6326E0019B64
:10495000B3F5005F03D1134B05225A631EE0019BA0
:10496000B3F5804F03D10F4B05229A6316E0019BEC
:10497000B3F5004F03D10B4B0522DA630EE0019B28
:10498000B3F5803F03D1074B05221A6406E0019B73
:10499000B3F5003F02D1034B05225A6400BF02B0B9
:1049A000704700BF00C0014082B00190019B012B05
:1049B00003D12D4B00221A6052E0019B022B03D140
:1049C000294B00225A604BE0019B102B03D1264B50
:1049D00000221A6144E0019B202B03D1224B0022CC
:1049E0005A613DE0019B402B03D11F4B00229A618D
:1049F00036E0019BB3F5006F03D11B4B0022DA6256
:104A00002EE0019BB3F5805F03D1174B00221A63A0
:104A100026E0019BB3F5005F03D1134B00225A63DC
:104A20001EE0019BB3F5804F03D10F4B00229A6328
:104A300016E0019BB3F5004F03D10B4B0022DA6364
:104A40000EE0019BB3F5803F03D1074B00221A64AF
:104A500006E0019BB3F5003F02D1034B00225A64EC
:104A600000BF02B0704700BF0000014000B585B034
:104A700003900291009313468DF807300299039832
:104A800000F0B2F9029BB3F1FF3F2BD0174A174B4E
:104A90001B6923F0805313610298FFF723FF134A29
:104AA000124B1B6943F080531361104A0F4B1B6973
:104AB00023F4803313610298FFF776FF0B4A0B4B08
:104AC0001B6943F48033136100990398FFF7DEFEFE
:104AD0000121039800F0C4F99DF8073019460398A6
:104AE00000F0B6F900BF05B05DF804FB00B001406E
:104AF00000B583B00190009100220099019800F068
:104B000005F800BF03B05DF804FB00BF00B585B039
:104B1000039002910192019B022202990398FFF7F0
:104B2000A5FF00BF05B05DF804FB00BF10B584B061
:104B30000190019B1B68DB689847019B5B685B6881
:104B4000002B04D1019B1B689B6898472CE0019BBC
:104B50005B685B681C68019B1B685B689847034641
:104B6000E31A002B17DC019B5B685B680393019BD6
:104B70005B68019A5268526892685A60019B5B6850
:104B80001B68002BD9D0019B5B681B68039A526895
:104B900010469847D1E7019B1B681B69019A526830
:104BA000526812681046984704B010BD08B5024814
:104BB000FFF7BCFF00BF08BD08D3100000B583B0ED
:104BC00001900849019803F019F80346184603F0CC
:104BD00065F90346184600F017F800BF03B05DF80A
:104BE00004FB00BF0024744900B583B00190019B11
:104BF0004FF47A7202FB03F3184600F005F800BF89
:104C000003B05DF804FB00BF00B585B0019001F072
:104C1000AFF8039000BF01F0ABF80246039BD21A35
:104C2000019B9A42F7D300BF05B05DF804FB00BFBB
:104C300082B0034600918DF807309DF90730002BB4
:104C40000CDA0D499DF8073003F00F03043B009A7E
:104C5000D2B21201D2B20B441A7609E007499DF98B
:104C60000730009AD2B21201D2B20B4483F800236B
:104C700000BF02B0704700BF00ED00E000E100E0BF
:104C800082B03A4A137843F00103137000BF374BE8
:104C90005B68C3F30003DBB2012BF8D1344A1388FD
:104CA0006FF34513138000238DF8073006E09DF85D
:104CB0000730DBB20133DBB28DF807309DF80730E7
:104CC000DBB2092BF3D9294A137843F00803137098
:104CD00000BF264B5B68C3F34013DBB2002BF8D058
:104CE00000BF224B5B68C3F30013DBB2012BF8D08B
:104CF0001F4A138843F0200313801D4A13886FF363
:104D00000413138000238DF8073006E09DF8073068
:104D1000DBB20133DBB28DF807309DF80730DBB230
:104D2000092BF3D9114A137843F00403137000BF21
:104D30000E4B5B68C3F3C003DBB2002BF8D000BF9F
:104D40000A4B5B68C3F38003DBB2012BF8D0084A3F
:104D5000138843F008031380044B4FF0FF321A61AD
:104D6000024B00225A6100BF02B0704700B0014000
:104D700000D0014008B5164B4FF481129A60FFF73E
:104D80007FFF144B00221A60134B1F22C3F88020B0
:104D9000114B1F22C3F8802102216FF00400FFF79E
:104DA00047FF02216FF00100FFF742FF02214FF0A1
:104DB000FF30FFF73DFF064B4FF020625A60074B74
:104DC00001221A60064B074A1A6000BF08BD00BFE7
:104DD00000ED00E01852FF3F00E100E00C800140D0
:104DE0009840FF3F0048E80100B583B00190009172
:104DF000019B009A1A60009BB3F1FF3F17D00E4B46
:104E00001A68009B1340002B04D053220B490C4816
:104E1000FFF720FD0B4A0B4B1B6923F480531361F2
:104E2000019B094ADA60019B084A1A6100E000BF51
:104E300003B05DF804FB00BF1852FF3F10D3100011
:104E40006CD3100000B0014000C0004004C000401E
:104E500082B001900B468DF8033000BF02B070475E
:104E600082B001900B468DF803309DF80330002B83
:104E700002D0012B0DD019E0019B0E4A9A60019BD4
:104E80009B68019A92681268019909680A431A603E
:104E90000CE0019B084A9A60019B9B68019A92680A
:104EA0001268019909680A431A6000BF00BF02B086
:104EB000704700BF0CC0004008C0004000B587B07C
:104EC00000238DF81730002304930023039300235D
:104ED00002930023019385E0474B5B6801930A230B
:104EE00004935CE0444B5B680121049A01FA02F2EE
:104EF0001340002B50D000230293049B0A3B072B46
:104F000051D801A252F823F0294F1000A74F1000EA
:104F1000A74F1000A74F10002F4F1000354F100063
:104F20003B4F1000414F10000023039333E0012357
:104F3000039330E0022303932DE0032303932AE03D
:104F400004238DF8173021E09DF817302B4A52F8D2
:104F50002330002B15D02A4B1B689DF817202749BA
:104F600051F82220012110469847254B1B689DF8D7
:104F70001720224951F82220022110469847012388
:104F800002939DF8173001338DF817309DF81730D4
:104F90000B2BD9D900BF06E0049B01330493049B7B
:104FA000112B9FD900E000BF029B002B17D1134AA1
:104FB000039B52F82330002B11D0114B1B680F4973
:104FC000039A51F822200121104698470C4B1B6888
:104FD0000A49039A51F82220022110469847064AAE
:104FE000019B1363044B5B68002B7FF475AF00BF1C
:104FF00007B05DF804FB00BF00C000403C44FF3F29
:105000006C44FF3F014B1846704700BF0048E80161
:1050100084B0019000230393019B039303E000BF3E
:10502000039B013B0393039B002BF8D100BF04B00B
:10503000704700BF154A154B1B6923F48053136159
:10504000134A134B9B6843F00C0393600F4A0F4BBA
:105050001B6923F0805313610E4B2F229A600D4B76
:105060002F22DA60094A094B1B6923F4803313614C
:10507000094B05229A60084B0522DA60034A034B6C
:105080001B6943F48033136100BF704700B00140D7
:1050900000C0004000C0014000000140034A034B33
:1050A0001B6923F08003136100BF704700B001400B
:1050B000034A137C43F08003137400BF704700BFA2
:1050C0000070004000B585B001900091FFF79AFF95
:1050D0000246009BB2FBF3F39B08023B0393094A91
:1050E000039BDBB203F01F03D9B2137C61F304030B
:1050F0001374044A039B5B09DBB2536100BF05B024
:105100005DF804FB0070004082B00190074B142250
:105110009A60064B1B6803F03403002B02D04FF05B
:10512000FF3300E00023184602B0704700700040D3
:1051300082B00190034B15229A600023184602B0FA
:10514000704700BF0070004000B587B00390029127
:10515000019200238DF817300023049349E02A4B75
:1051600012229A60C820FFF753FF029A049B13444F
:105170001B78132B18D1244B10229A60224B10223B
:105180009A60214B10229A601F4B11229A601E4B8D
:1051900010229A601C4B10229A601B4B11229A60BD
:1051A000194B11229A6007E01749049B5A1C04927C
:1051B000029A13441B788B60C820FFF729FF124B1B
:1051C00016229A60C820FFF723FF00BF0E4B1B6812
:1051D00003F01003002BF9D1C820FFF719FF0A4B89
:1051E0001B6803F00403002B03D002238DF8173053
:1051F00003E0049A019B9A42B1D39DF817301846F8
:1052000007B05DF804FB00BF0070004000B587B038
:1052100003AB00210A461A800A469A70FFF70AFF7C
:10522000FFF73CFFFFF744FF454A137C43F0400380
:105230001374434A137C43F0200313744149002044
:10524000FFF740FF20238DF80C3007238DF80D3039
:1052500000238DF80E300020FFF76AFF03AB032216
:1052600019460020FFF770FF0020FFF74DFF2023B5
:105270008DF80C3003238DF80D3000238DF80E309F
:105280000020FFF755FF03AB032219460020FFF76C
:105290005BFF0020FFF738FF4FF6FF70FFF7B8FE07
:1052A00020238DF80C3003238DF80D30FF238DF86B
:1052B0000E300020FFF73CFF03AB0322194600200D
:1052C000FFF742FF0020FFF71FFF1F4A6B461068E1
:1052D000516803C31189927A19809A7006238DF858
:1052E0000C30FF238DF80D30FF238DF80E300B238B
:1052F0000493002305931AE00020FFF719FF6A4684
:10530000059B1344012219460020FFF71DFF03AB44
:10531000032219460020FFF717FF0020FFF7F4FED5
:105320004FF6FF70FFF774FE059B01330593059A56
:10533000049B9A42E0D900BF07B05DF804FB00BFB0
:105340000070004040420F00E8D31000014B1846A7
:10535000704700BF0048E80100B585B00390029196
:105360000192029B012B03D0029BB3F5807F06D1F3
:10537000019B022B08D0019BB3F5007F04D03A2299
:1053800024492548FFF766FA029B012B13D1019BA4
:10539000022B10D1039B214A1A60039B00225A6002
:1053A0001F4B1B6843F003031D4A136000F068F8AD
:1053B00000F0CAF81BE0029BB3F5807F17D1019B78
:1053C000B3F5007F13D1039B164A1A60039B012299
:1053D0005A60134B1B6843F44073114A136000F08A
:1053E00023F800F0A7F8039B1B6800225A604FF4D3
:1053F000E131039800F070F802230022082103989D
:1054000000F0ACF8039B1B680F229A6000BF05B048
:105410005DF804FBF4D3100040D4100000500040AD
:105420001852FF3F00800040124A124B1B6923F0C4
:1054300080531361104B25221A620F4B04225A62CB
:105440000C4A0C4B1B6943F080531361094A094B0A
:105450001B6923F480331361084B07221A62074B40
:1054600007225A62034A034B1B6943F480331361DA
:1054700000BF704700B0014000C001400000014083
:10548000124A124B1B6923F080531361104B072201
:105490001A600F4B04225A600C4A0C4B1B6943F0F4
:1054A00080531361094A094B1B6923F4803313614C
:1054B000084B07221A60074B07225A60034A034B26
:1054C0001B6943F48033136100BF704700B0014093
:1054D00000C001400000014000B585B0019000917E
:1054E000FFF734FF0246009BB2FBF3F31B09ADF854
:1054F0000E30019B1B68019A1268D26842F080024C
:10550000DA60019B1B68BDF80E20D2B21A60019BC5
:105510001B68BDF80E20120A92B25A60019B1B68EC
:10552000019A1268D26802F07F02DA6000BF05B00B
:105530005DF804FB034A034B1B6923F4807313617A
:1055400000BF704700B00140034A034B1B6923F0C2
:105550002003136100BF704700B0014000B585B063
:1055600003900291009313468DF80730009B012BA6
:1055700007D0009B022B04D0BA2234493448FFF7ED
:1055800069F902230093029B042B02DD029B082B86
:1055900004DDC2222D492F48FFF75CF99DF8073042
:1055A000002B14D09DF80730012B10D09DF8073048
:1055B000022B0CD09DF80730032B08D09DF8073044
:1055C000042B04D0C62221492348FFF743F9029B4C
:1055D000053B0293009B013B00939DF80730042B91
:1055E00020D801A252F823F0FD55100005561000F6
:1055F0000D561000155610001D56100000238DF892
:10560000073013E001238DF807300FE002238DF8F7
:1056100007300BE005238DF8073007E007238DF8EE
:10562000073003E000238DF8073000BF039B1B68A1
:10563000009A9100029A11439DF80720D2000A4374
:10564000DA6000BF05B05DF804FB00BFF4D31000C2
:1056500078D41000A0D41000C4D4100082B00190FF
:10566000019B1B685B69C3F30003DBB2184602B001
:10567000704700BF82B00190019B1B685B69C3F358
:105680004013DBB2184602B0704700BF00B583B0CC
:105690000190009100BF0198FFF7ECFF0346002B3B
:1056A000F9D0019B1B68009A1A6000BF03B05DF837
:1056B00004FB00BF00B583B0019000BF0198FFF765
:1056C000CDFF0346002BF9D0019B1B681B681846D1
:1056D00003B05DF804FB00BF84B003900291019217
:1056E000054A029B1360039B5B680449019A41F8D9
:1056F000232000BF04B070477444FF3F7844FF3F4D
:1057000000B583B0034600918DF80730134A009B23
:1057100052F82330002B1DD09DF8073003F04003D2
:10572000002B08D00E4B1B680C49009A51F8222020
:105730000121104698479DF8073003F00103002B24
:1057400008D0074B1B680549009A51F82220002118
:105750001046984700BF03B05DF804FB7844FF3F54
:105760007444FF3F00B583B01B4B5B698DF8063076
:1057700000238DF80730184B5B6803F00203002B01
:105780000AD09DF8063003F04003DAB29DF80730E6
:105790001343DBB28DF807300F4B5B6803F0010356
:1057A000002B0AD09DF8063003F00103DAB29DF811
:1057B00007301343DBB28DF807309DF806209DF8C3
:1057C00007301340DBB200211846FFF799FF00BFF6
:1057D00003B05DF804FB00BF00500040014B1846C9
:1057E000704700BF0048E80182B00190019B1A6831
:1057F000137B6FF30003137300BF02B0704700BF49
:1058000082B00190019B1A68137B43F0010313736C
:1058100000BF02B0704700BF00B585B00390029191
:1058200001920093029B202B03D0029BB3F5004F03
:105830000DD1019B402B03D0019BB3F5803F06D1D6
:10584000009B102B08D0009BB3F5804F04D036226C
:1058500026492748FEF7FEFF029B202B17D1019B0C
:10586000402B14D1009B102B11D1039B214A1A60AD
:10587000214B1B6843F070031F4A136000F07CF853
:105880001E4A1E4B1B6923F0400313611CE0029B60
:10589000B3F5004F18D1019BB3F5803F14D1009BA5
:1058A000B3F5804F10D1039B154A1A60124B1B6849
:1058B00043F4E033104A136000F024F80F4A0F4B12
:1058C0001B6923F4007313610398FFF78DFF039B9B
:1058D0001B6804229A62039B1B680422DA62039805
:1058E000FFF78EFF00BF05B05DF804FB4CD510003C
:1058F00094D51000006000401852FF3F00B00140F6
:1059000000900040184A184B1B6923F48053136120
:10591000164A164B9B6843F440439360134A134B5B
:10592000DB6843F48033D3600F4A0F4B1B6923F0CD
:10593000805313610E4B07229A630D4B0722DA63E3
:105940000B4B07221A64084A074B1B6923F4803368
:105950001361084B06229A63064B0622DA63054B55
:1059600006221A6400BF704700B0014000C000402A
:1059700000C0014000000140184A184B1B6923F485
:1059800080531361164A164B9B6843F030039360B3
:10599000134A134BDB6843F04003D3600F4A0F4BAD
:1059A0001B6923F0805313610E4B07221A610D4BC4
:1059B00007225A610B4B07229A61084A074B1B6961
:1059C00023F480331361084B06221A61064B06222A
:1059D0005A61054B06229A6100BF704700B0014032
:1059E00000C0004000C001400000014000B587B089
:1059F00003900291019200930398FFF7F5FE029B3A
:105A0000082B05D0029B102B02D0029B202B05D126
:105A1000019B002B02DB019B032B04DDA4223A49EE
:105A20003A48FEF717FF0023059300230493029BD7
:105A3000102B06D0202B07D0082B08D1002302936F
:105A400005E00123029302E00223029300BF039BBF
:105A50001A68029BDBB203F00303D9B2137B61F334
:105A600087131373039B1A68137B43F0200313738C
:105A7000019B032B1ED801A252F823F08D5A10006F
:105A8000975A1000A15A1000AB5A1000002305933A
:105A9000002304930EE0002305930123049309E0FF
:105AA000012305930023049304E0012305930123BC
:105AB000049300BF039B1A68059BDBB203F001034C
:105AC000D9B2137B61F304131373039B1A68049B0D
:105AD000DBB203F00103D9B2137B61F3C303137389
:105AE000039B1A68137B43F004031373039B1A6828
:105AF000137B43F0020313730398FFF781FE00BF8B
:105B000007B05DF804FB00BF4CD51000F8D51000BD
:105B100000B585B0019000910198FFF765FEFFF791
:105B20005DFE0246009BB2FBF3F35B08013B03936F
:105B3000019B1B68039A9A600198FFF761FE00BF02
:105B400005B05DF804FB00BF82B00190009100BF7A
:105B5000019B1B681B69C3F38003DBB2002BF7D0EA
:105B6000019B1B68009A1A6000BF019B1B681B69A0
:105B7000C3F30003DBB2012BF7D000BF02B07047C4
:105B800082B0019000BF019B1B681B69C3F34013E7
:105B9000DBB2012BF7D0019B1B685B68184602B093
:105BA000704700BF00B583B0019000910099019843
:105BB000FFF7CAFF0198FFF7E3FF0346184603B05B
:105BC0005DF804FB82B003468DF8073007499DF964
:105BD00007305B099DF8072002F01F02012000FA40
:105BE00002F241F8232000BF02B0704700E100E05C
:105BF00082B003468DF8073008499DF907305B09EC
:105C00009DF8072002F01F02012000FA02F2203363
:105C100041F8232000BF02B0704700BF00E100E060
:105C200082B003468DF8073008499DF907305B09BB
:105C30009DF8072002F01F02012000FA02F2403313
:105C400041F8232000BF02B0704700BF00E100E030
:105C500082B003468DF8073008499DF907305B098B
:105C60009DF8072002F01F02012000FA02F26033C3
:105C700041F8232000BF02B0704700BF00E100E000
:105C800082B0034600918DF807309DF90730002B54
:105C90000CDA0D499DF8073003F00F03043B009A1E
:105CA000D2B21201D2B20B441A7609E007499DF92B
:105CB0000730009AD2B21201D2B20B4483F800230B
:105CC00000BF02B0704700BF00ED00E000E100E05F
:105CD0004FF080430022DA60034B1B680133024A15
:105CE000136000BF704700BF8844FF3F08B51D4BDD
:105CF0001B68002B33D11B4B01221A601A4A1A4B26
:105D00001B6923F001031361174A174B1B6923F02A
:105D1000020313614FF080434FF6FF721A604FF099
:105D20008043D4229A60114B4FF6FF721A600F4BDA
:105D300054229A600020FFF78BFF0120FFF788FFB5
:105D400001210020FFF79CFF02210120FFF798FFAF
:105D50000020FFF737FF0120FFF734FF00E000BF0E
:105D600008BD00BF8044FF3F00B00140001000406C
:105D700000B583B01C4B1B68002B01D1FFF7B6FFA9
:105D80004FF080435B680093009BC3F57F43FF3374
:105D900001930020FFF72CFF4FF080439B68C3F373
:105DA0000023DBB2002B11D04FF080430022DA60D9
:105DB0000E4B1B6801330D4A13604FF080435B6844
:105DC0000093009BC3F57F43FF330193074B1B6890
:105DD0001B04019A134301930020FFF7F3FE019B7C
:105DE000184603B05DF804FB8044FF3F8844FF3F42
:105DF000034A13896FF3C713138100BF704700BFB5
:105E000000100040024B0022DA6000BF704700BF64
:105E10000010004082B00190074A13896FF3C71346
:105E20001381054A019B1360034A138943F08003E1
:105E3000138100BF02B070470010004008B50D4B41
:105E40000022DA600C4B1B68002B09DD4FF6FF7057
:105E5000FFF7E0FF084B1B68013B074A136006E0B1
:105E6000044A13896FF3C7131381FEF79FFE00BF27
:105E700008BD00BF001000408444FF3F00B585B05E
:105E80000190FFF775FF0246019B9B1A0393039B4A
:105E9000002B03DC0120FFF7C3FE07E0039B1B146C
:105EA000044A1360039B1846FFF7B4FF05B05DF882
:105EB00004FB00BF8444FF3F00B583B00190009114
:105EC0000099019800F02AF8019B184603B05DF88C
:105ED00004FB00BF00B583B00190019B5B69002B00
:105EE00007D1019B1B68002B03D0019B1B689847BF
:105EF00011E0019B5B69002B0CD0019B1B68002B00
:105F000008D0019B5B69019A1068019A043211461E
:105F1000984700E000BF03B05DF804FB82B0019039
:105F20000091019B009A1A60019B00225A6100BFF8
:105F300002B070470FB400B599B01BAB179301A81E
:105F400000234FF400724FF4807100F01DFC01AB90
:105F50004033179A1A99184600F048FE012001F0C4
:105F6000FDFF00BF84B00390029113468DF8073007
:105F70000F4A039B1A60039B00225A60039B029AFC
:105F80009A60039B9DF807201A73029B002B07D091
:105F9000084B1A68039B5A60064A039B136002E091
:105FA000039B00225A60039B184604B0704700BF51
:105FB0006CD610008C44FF3F00B585B00190164AA6
:105FC000019B1A60019B9B68002B19D0134B1A6828
:105FD000019B9A4204D1019B5B68104A13600FE059
:105FE0000E4B1B680393039B5A68019B9A4203D094
:105FF000039B5B680393F6E7019B5A68039B5A6017
:106000000023002B02D0019800F035FE019B1846BA
:1060100005B05DF804FB00BF6CD610008C44FF3F58
:1060200000B583B001900198FFF7C6FF019800F01A
:1060300022FE019B184603B05DF804FB00B585B055
:1060400001900091134B1B680393039B002B1CD002
:10605000039B9B68002B14D0039B9B68009A0199BB
:10606000184603F02CFE0346002B0AD1039B9B68C5
:10607000184603F01CFE0246009B9A4201D1039B86
:1060800004E0039B5B680393DFE70023184605B039
:106090005DF804FB8C44FF3F82B00190019B1B7BA9
:1060A000184602B0704700BF00B585B00190019B53
:1060B0001B6810331B680122002101989847039048
:1060C000039BB3F1FF3F02D14FF0FF3311E0019B7F
:1060D0001B6810331B680222002101989847029028
:1060E000019B1B6810331B68002203990198984795
:1060F000029B184605B05DF804FB00BF82B001901A
:10610000034A019B1A60019B184602B0704700BF0A
:10611000E0D6100000B583B001900091019B1846B5
:10612000FFF7ECFF019B0433002200991846FFF7AC
:1061300019FF054A019B1A60044A019B5A60019BA2
:10614000184603B05DF804FB7CD61000A8D61000FA
:1061500000B583B001900D4A019B1A600C4A019B67
:106160005A60019B04331846FFF726FF019B18462F
:1061700000F0C4F80023002B02D0019800F07BFD52
:10618000019B184603B05DF804FB00BF7CD61000ED
:10619000A8D6100000B587B001900091019B0022A5
:1061A0001A60019B00225A60009B1B782F2B31D173
:1061B000009B01331B78002B2CD0009B01330493F0
:1061C000019B049A1A6000230593019B1B681B78AE
:1061D0008DF80F309DF80F302F2B05D1019B1B68D8
:1061E0005A1C019B1A600DE09DF80F30002B08D05F
:1061F000059B01330593019B1B685A1C019B1A6088
:10620000E3E700BF059B19460498FFF717FF024616
:10621000019B5A60019B184607B05DF804FB00BF64
:1062200082B00190019B1B68184602B0704700BF06
:1062300000B583B00190019B5B68002B01D1002366
:106240000AE0019B5B681846FFF726FF0346012B17
:106250000CBF01230023DBB2184603B05DF804FB3A
:1062600000B583B001900198FFF7E2FF0346002BD1
:1062700002D0019B5B6800E00023184603B05DF884
:1062800004FB00BF00B583B00190019B5B68002B4D
:1062900001D100230AE0019B5B681846FFF7FCFE72
:1062A0000346002B0CBF01230023DBB2184603B0CA
:1062B0005DF804FB00B583B001900198FFF7E2FFA1
:1062C0000346002B09D0019B5B68002B03D0019B88
:1062D0005B68043B02E0002300E00023184603B0A3
:1062E0005DF804FB82B00190019B5B68002B14BF3A
:1062F00001230023DBB2184602B0704700B585B019
:106300000190124A019B1A60002303934022039BD1
:106310009A420FD90E4A039B52F82320019B9A42BE
:1063200004D10B4A039B002142F82310039B013345
:106330000393EBE70023002B02D0019800F09BFCB5
:10634000019B184605B05DF804FB00BFE0D61000C5
:106350009044FF3F08B5074B1B68002B07D14FF057
:10636000FF324FF0FF310448FEF7F6FF00E000BFB8
:1063700008BD00BF7044FF3F1C52FF3F84B0019036
:10638000019B0393039B23F480330393039B1846E1
:1063900004B0704710B58AB0019000914849019847
:1063A00003F07BFC0346002B03D1FFF7D3FF002350
:1063B00083E04449019803F070FC0346002B03D1AD
:1063C000FFF7C8FF012378E03F49019803F065FC1F
:1063D0000346002B03D1FFF7BDFF02236DE000232E
:1063E00009934022099B9A420AD9384A099B52F8DC
:1063F0002330002B03D0099B01330993F1E700BF41
:106400004022099B9A4202D84FF0FF3355E0019B8E
:106410001B783A2B08D105AB1A462D49019803F099
:10642000CDFB059B08933BE003AB01991846FFF7B2
:10643000B1FE03AB1846FFF755FF034683F0010397
:10644000DBB2002B02D04FF0FF3336E003AB18462F
:10645000FFF718FF0346002B05D003AB1846FFF7E4
:1064600029FF08901CE003AB1846FFF7F9FE0790E0
:10647000079B002B02D14FF0FF331EE00098FFF77F
:106480007DFF0690079B1B6808331C6803AB18460A
:10649000FFF7C6FE0346069A19460798A0470890DC
:1064A000089B002B02D14FF0FF3306E00749099B00
:1064B000089A41F82320099B033318460AB010BDFF
:1064C000B0D61000B8D61000C0D610009044FF3FE0
:1064D000C8D6100000B585B00190019B022B01DCED
:1064E000002318E0019B033B0D4A52F8233003932D
:1064F000019B033B0A4A002142F82310039B002B17
:1065000002D14FF0FF3306E0039B1B6804331B6886
:10651000039898470346184605B05DF804FB00BF92
:106520009044FF3F00B589B003900291019200931F
:10653000039B022B1ADC1A4B1B68002B01D1FFF7BF
:1065400009FF00230693069A019B9A420BD2029AF6
:10655000069B13441B7819461248FFF797F8069BD1
:1065600001330693EFE7019B079313E0039B033B83
:106570000D4A52F823300593059B002B02D14FF0B2
:10658000FF3308E0059B1B681B68019A0299059878
:1065900098470790079B184609B05DF804FB00BFB9
:1065A0007044FF3F1C52FF3F9044FF3F00B587B04F
:1065B0000390029101920093039B022B0FDC154B79
:1065C0001B68002B01D1FFF7C5FE1348FFF772F8D7
:1065D0000346DAB2029B1A700123059314E0039B71
:1065E000033B0E4A52F823300493049B002B02D144
:1065F0004FF0FF3309E0049B1B6808331B68019AC6
:106600000299049898470590059B184607B05DF8D5
:1066100004FB00BF7044FF3F1C52FF3F9044FF3F0C
:1066200000B585B00190019B022B01DC012312E033
:10663000019B033B0A4A52F823300393039B002B30
:1066400002D14FF0FF3306E0039B1B680C331B683D
:10665000039898470346184605B05DF804FB00BF51
:106660009044FF3F00B587B0039002910192039BD5
:10667000022B01DC002314E0039B033B0B4A52F87E
:1066800023300593059B002B02D14FF0FF3308E028
:10669000059B1B6810331B68019A0299059898475F
:1066A0000346184607B05DF804FB00BF9044FF3F67
:1066B00000B583B001900091019B012B05D0019B97
:1066C000022B02D0019B002B05D1009B4FF40052FE
:1066D0005A60002306E001F03BFC024609231360E8
:1066E0004FF0FF33184603B05DF804FB00BF70475E
:1066F00000BF704708B5FFF7FBFFFFF7F7FFFCF798
:1067000055F80346184608BD10B485B00190114BEA
:106710001B6803930F4B1A68019B13440293EFF31A
:1067200008831C4623461A46029B9A4294BF0123C3
:106730000023DBB2002B05D0074B0C221A604FF070
:10674000FF3303E0034A029B1360039B184605B026
:1067500010BC70479C40FF3F2452FF3F00B583B000
:106760000190019B002B01D0FEF786F8FEE700BFE9
:1067700000B583B001900021019803F067F900BFD4
:1067800003B05DF804FB00BF00B585B00390029133
:1067900001920093039B019A0299184600F03CF87D
:1067A000039B40330099184600F03CF9064A039BCE
:1067B0001A60064A039B1A64054A039B5A64039BAA
:1067C000184605B05DF804FB0CD7100024D7100064
:1067D00058D7100000B583B00190019B184600F017
:1067E0006BF80346184603B05DF804FBA0F14000C7
:1067F000FFF7F0BF00B583B001900091019B0099B5
:10680000184600F067F80346184603B05DF804FB2D
:10681000A0F14000FFF7EEBF30B585B003900291C4
:106820000192164A039B1A60039B00225A60039B45
:1068300000229A60039B0C3301241D46B4F1FF3FF4
:1068400006D000212846FFF737FB1835013CF5E755
:10685000039B4FF41652DA63039B0433019A0299A7
:106860001846FEF779FD039B0433039A0449184642
:10687000FEF732FF039B184605B030BD18D210005A
:106880008568100000B585B001900B468DF8033087
:10689000019B03939DF8032013465B001344DB0028
:1068A0000833039A134404331846FFF713FB00BF61
:1068B00005B05DF804FB00BF00B583B00190019BFB
:1068C00004331846FEF7F6FE0346184603B05DF89B
:1068D00004FB00BF00B583B001900091019B04331D
:1068E00000991846FEF7D2FE009B184603B05DF8EB
:1068F00004FB00BF00B587B005900491039202939A
:10690000164A059B1A60059B00225A60059B0822C7
:106910009A60059B0022DA60059B114A1A61059B6B
:10692000181D089B0093029B039A0499FEF774FFBD
:10693000059B181D059B9968059BDA680023FFF7E6
:1069400055F8059B1A1D059B1B6919461046FFF754
:10695000DFF8059B184607B05DF804FB68D7100008
:1069600040420F0000B585B0039002910192039B55
:10697000029A9A60039B019ADA60054B00221A6022
:10698000039800F01BF800BF05B05DF804FB00BFE2
:106990009045FF3F00B583B001900091019B009AA4
:1069A0001A61054B00221A60019800F007F800BF39
:1069B00003B05DF804FB00BF9045FF3F00B583B016
:1069C00001900E4B1A68019B9A4213D0019B181D2F
:1069D000019B9968019BDA680023FFF707F8019B88
:1069E0001A1D019B1B6919461046FFF791F8034ACF
:1069F000019B136000BF03B05DF804FB9045FF3FAF
:106A000000B583B0019000910198FFF7D7FF019B7B
:106A1000043300991846FFF7C5F80346184603B03B
:106A20005DF804FB00B587B001900091019B0099CF
:106A30001846FFF76FFB104A019B1A600F4A019B33
:106A40005A60019B00225A6103AB019A0C49184617
:106A500003F090F803AB0B49184601F0B1FC024675
:106A6000019B5A61019B5B691846FFF781FE019B00
:106A7000184607B05DF804FB84D71000B8D71000A3
:106A800074D7100078D7100000B583B001900D4A7C
:106A9000019B1A600C4A019B5A60019B5B69184676
:106AA00001F0C2FA019B1846FFF752FB0023002BAE
:106AB00002D0019800F0DFF8019B184603B05DF8A2
:106AC00004FB00BF84D71000B8D7100082B001903B
:106AD0000023184602B0704700B587B003900291BA
:106AE0000192029B0593059A019B13440493059A16
:106AF000049B9A4215D0039B1B6824331A68059B9C
:106B0000591C05911B781946039890470346B3F129
:106B1000FF3F0CBF01230023DBB2002B00D1E6E7CF
:106B200000BF059A029BD31A184607B05DF804FB14
:106B300000B589B0039002910192029B0793079AD6
:106B4000019B13440693079A069B9A4212D0039B1B
:106B50001B6828331B68039898470590059BB3F181
:106B6000FF3F06D0079B5A1C0792059AD2B21A70B3
:106B7000E9E700BF079A029BD31A184609B05DF8EF
:106B800004FB00BF84B003900291019200231846D9
:106B900004B0704782B001900023184602B07047DD
:106BA00082B001900023184602B0704782B0019075
:106BB0000023184602B070470EB400B584B00190AF
:106BC00006AB0293019B5B69184601F0E5FA019B55
:106BD0005B69029A0599184601F044FF0390039BF4
:106BE000184604B05DF804EB03B0704700B587B0F9
:106BF000039002910192039B5B69184601F0CCFA65
:106C0000039B5B69019A0299184601F02BFF0590DE
:106C1000059B184607B05DF804FB00BF0849094A08
:106C2000094B9A42BEBF51F8040B42F8040BF8E737
:106C3000064880F308880648804706480047000059
:106C4000D4DC10000040FF3F5C41FF3F00D8FF3F15
:106C5000754D10004D2A1000FEE7FEE7FEE7FEE747
:106C6000FEE7FEE7FEE7FEE7FEE7FEE70B4601462E
:106C7000184601F05FB9FBF72FBF10B5002814BF0D
:106C8000044601242046FBF719FF30B900F086F8CE
:106C900008B9FBF72DFF8047F4E710BD7047704738
:106CA0000AB101F0D5BC704708B50B68B3F1004FCD
:106CB00002D30A4800F07DF8934209D9520093426A
:106CC00006D2B2F1004F2ABF6FF000430A600B609A
:106CD0000868BDE808400130FFF7CFBFC0D71000FB
:106CE000034653F8080B984201D0FFF7C4BF704722
:106CF000012A10B502D10A78027010BDFFF7D0FF4B
:106D000010BD08B5521AFFF7F3FF08BD00F10802E5
:106D10000260002242600272704710B50446FFF71D
:106D2000DFFF204610BD000073B5044616460D4631
:106D300001B9BAB9731B0F2B019307D9002201A91E
:106D40002046FFF7B1FF019B2060A3603246294631
:106D50002068FFF7D6FF019B226800216360D154B1
:106D600002B070BD014800F021F800BF1BD910002F
:106D700038B500F10803044603600D4621B108460A
:106D800002F095FF2A1801E04FF0FF3220464FF045
:106D900000032946FFF7C8FF204638BD024B18689C
:106DA000BFF35F8F704700BF9445FF3F08B5FBF707
:106DB0009FFE08B5FBF79CFE244B1A68D0075CBF0A
:106DC00001221A60224B1A68D1075CBF01221A60A7
:106DD000204B1A68D2075CBF01221A601E4B1A684A
:106DE000D0075CBF01221A601C4B1A68D1075CBF38
:106DF00001221A601A4B1A68D2075CBF01221A607E
:106E0000184B1A68D0075CBF01221A60164B1A682B
:106E1000D1075CBF01221A60144B1A68D2075CBF0D
:106E200001221A60124B1A68D0075CBF01221A6057
:106E3000104B1A68D1075CBF01221A600E4B1A680A
:106E4000D2075CBF01221A60704700BFC445FF3FF4
:106E5000C045FF3FBC45FF3FB845FF3FB445FF3F3E
:106E6000B045FF3FAC45FF3FA845FF3FA445FF3F6E
:106E7000A045FF3F9C45FF3F9845FF3F184B1A68D0
:106E8000D1075CBF01221A60164B1A68D2075CBF9B
:106E900001221A60144B1A68D0075CBF01221A60E5
:106EA000124B1A68D1075CBF01221A60104B1A6896
:106EB000D2075CBF01221A600E4B1A68D0075CBF74
:106EC00001221A600C4B1A68D1075CBF01221A60BC
:106ED0000A4B1A68D2075CBF01221A60704700BFD4
:106EE000E445FF3FE045FF3FDC45FF3FD845FF3F1E
:106EF000D445FF3FD045FF3FCC45FF3FC845FF3F4E
:106F0000244B1A68D0075CBF01221A60224B1A6812
:106F1000D1075CBF01221A60204B1A68D2075CBF00
:106F200001221A601E4B1A68D0075CBF01221A604A
:106F30001C4B1A68D1075CBF01221A601A4B1A68F1
:106F4000D2075CBF01221A60184B1A68D0075CBFD9
:106F500001221A60164B1A68D1075CBF01221A6021
:106F6000144B1A68D2075CBF01221A60124B1A68D0
:106F7000D0075CBF01221A60104B1A68D1075CBFB2
:106F800001221A600E4B1A68D2075CBF01221A60F8
:106F9000704700BF1446FF3F1046FF3F0C46FF3FBF
:106FA0000846FF3F0446FF3F0046FF3FFC45FF3FCA
:106FB000F845FF3FF445FF3FF045FF3FEC45FF3FFD
:106FC000E845FF3F184B1A68D1075CBF01221A60E1
:106FD000164B1A68D2075CBF01221A60144B1A685C
:106FE000D0075CBF01221A60124B1A68D1075CBF40
:106FF00001221A60104B1A68D2075CBF01221A6086
:107000000E4B1A68D0075CBF01221A600C4B1A683D
:10701000D1075CBF01221A600A4B1A68D2075CBF15
:1070200001221A60704700BF3446FF3F3046FF3FE1
:107030002C46FF3F2846FF3F2446FF3F2046FF3FA8
:107040001C46FF3F1846FF3F31F0004310B407D005
:10705000104AA1F58014944206D8042010BC704751
:1070600010B9022010BC704701F1FF41094A01F537
:10707000E0019142F1D9B3F5801F01D20320EDE781
:10708000054A934201D00020E8E7B0FA80F04009B9
:10709000E4E700BFFFFFDF7F0000F07F81F00041E9
:1070A00002E000BF83F0004330B54FEA41044FEAED
:1070B000430594EA050F08BF90EA020F1FBF54EA88
:1070C000000C55EA020C7FEA645C7FEA655C00F024
:1070D000E2804FEA5454D4EB5555B8BF6D420CDDF5
:1070E0002C4480EA020281EA030382EA000083EA78
:1070F000010180EA020281EA0303362D88BF30BD18
:1071000011F0004F4FEA01314FF4801C4CEA11316D
:1071100002D0404261EB410113F0004F4FEA0333CC
:107120004CEA133302D0524263EB430394EA050F57
:1071300000F0A780A4F10104D5F1200E0DDB02FAC6
:107140000EFC22FA05F2801841F1000103FA0EF25A
:10715000801843FA05F359410EE0A5F120050EF120
:10716000200E012A03FA0EFC28BF4CF0020C43FA51
:1071700005F3C01851EBE37101F0004507D54FF05E
:10718000000EDCF1000C7EEB00006EEB0101B1F5AE
:10719000801F1BD3B1F5001F0CD349085FEA3000F4
:1071A0004FEA3C0C04F101044FEA445212F5800FFF
:1071B00080F09A80BCF1004F08BF5FEA500C50F19C
:1071C000000041EB045141EA050130BD5FEA4C0C7F
:1071D000404141EB010111F4801FA4F10104E9D108
:1071E00091F0000F04BF01460020B1FA81F308BFFF
:1071F0002033A3F10B03B3F120020CDA0C3208DDCB
:1072000002F1140CC2F10C0201FA0CF021FA02F1A5
:107210000CE002F11402D8BFC2F1200C01FA02F115
:1072200020FA0CFCDCBF41EA0C019040E41AA2BF3A
:1072300001EB0451294330BD6FEA04041F3C1CDA02
:107240000C340EDC04F11404C4F1200220FA04F022
:1072500001FA02F340EA030021FA04F345EA0301CC
:1072600030BDC4F10C04C4F1200220FA02F001FA8E
:1072700004F340EA0300294630BD21FA04F0294610
:1072800030BD94F0000F83F4801306BF81F48011A9
:107290000134013D4EE77FEA645C18BF7FEA655C1C
:1072A00029D094EA050F08BF90EA020F05D054EAEE
:1072B000000C04BF1946104630BD91EA030F1EBFF3
:1072C0000021002030BD5FEA545C05D140004941F7
:1072D00028BF41F0004130BD14F580043CBF01F5EA
:1072E000801130BD01F0004545F0FE4141F47001D0
:1072F0004FF0000030BD7FEA645C1ABF19461046AB
:107300007FEA655C1CBF0B46024650EA013406BFAB
:1073100052EA033591EA030F41F4002130BD00BF6A
:1073200090F0000F04BF0021704730B54FF4806427
:1073300004F132044FF000054FF0000150E700BFA8
:1073400090F0000F04BF0021704730B54FF4806407
:1073500004F1320410F0004548BF40424FF00001F4
:107360003EE700BF42004FEAE2014FEA31014FEA37
:1073700002701FBF12F07F4393F07F4F81F0605186
:10738000704792F0000F14BF93F07F4F704730B5F5
:107390004FF4607401F0004521F0004120E700BF88
:1073A00050EA010208BF704730B54FF000050AE00F
:1073B00050EA010208BF704730B511F0004502D510
:1073C000404261EB41014FF4806404F132045FEA12
:1073D000915C3FF4DCAE4FF003025FEADC0C18BFB7
:1073E00003325FEADC0C18BF033202EBDC02C2F1AD
:1073F000200300FA03FC20FA02F001FA03FE40EA3F
:107400000E0021FA02F11444C1E600BF70B54FF03E
:10741000FF0C4CF4E06C1CEA11541DBF1CEA135520
:1074200094EA0C0F95EA0C0F00F0DEF82C4481EA88
:10743000030621EA4C5123EA4C5350EA013518BFA8
:1074400052EA033541F4801143F4801338D0A0FB95
:1074500002CE4FF00005E1FB02E506F00042E0FB42
:1074600003E54FF00006E1FB03569CF0000F18BF48
:107470004EF0010EA4F1FF04B6F5007F64F54074F0
:1074800004D25FEA4E0E6D4146EB060642EAC62183
:1074900041EA55514FEAC52040EA5E504FEACE2EF0
:1074A000B4F1FD0C88BFBCF5E06F1ED8BEF1004FF3
:1074B00008BF5FEA500E50F1000041EB045170BD6F
:1074C00006F0004646EA010140EA020081EA0301B3
:1074D000B4EB5C04C2BFD4EB0C0541EA045170BDAF
:1074E00041F480114FF0000E013C00F3AB8014F129
:1074F000360FDEBF002001F0004170BDC4F1000472
:10750000203C35DA0C341BDC04F11404C4F12005F2
:1075100000FA05F320FA04F001FA05F240EA02004D
:1075200001F0004221F0004110EBD37021FA04F683
:1075300042EB06015EEA430E08BF20EAD37070BD3D
:10754000C4F10C04C4F1200500FA04F320FA05F09C
:1075500001FA04F240EA020001F0004110EBD3709E
:1075600041F100015EEA430E08BF20EAD37070BD0E
:10757000C4F1200500FA05F24EEA020E20FA04F3E7
:1075800001FA05F243EA020321FA04F001F0004196
:1075900021FA04F220EA020000EBD3705EEA430E07
:1075A00008BF20EAD37070BD94F0000F0FD101F036
:1075B0000046400041EB010111F4801F08BF013C6F
:1075C000F7D041EA060195F0000F18BF704703F0AD
:1075D0000046520043EB030313F4801F08BF013D34
:1075E000F7D043EA0603704794EA0C0F0CEA1355F0
:1075F00018BF95EA0C0F0CD050EA410618BF52EAAA
:107600004306D1D181EA030101F000414FF00000AF
:1076100070BD50EA410606BF1046194652EA4306BD
:1076200019D094EA0C0F02D150EA013613D195EA31
:107630000C0F05D152EA03361CBF104619460AD179
:1076400081EA030101F0004141F0FE4141F4700183
:107650004FF0000070BD41F0FE4141F4780170BD73
:1076600070B54FF0FF0C4CF4E06C1CEA11541DBFD8
:107670001CEA135594EA0C0F95EA0C0F00F0A7F8DA
:10768000A4EB050481EA030E52EA03354FEA013107
:1076900000F088804FEA03334FF0805545EA13131A
:1076A00043EA12634FEA022245EA111545EA1065E2
:1076B0004FEA00260EF000419D4208BF964244F179
:1076C000FD0404F5407402D25B084FEA3202B61A98
:1076D00065EB03055B084FEA32024FF480104FF46C
:1076E000002CB6EB020E75EB030E22BFB61A7546E0
:1076F00040EA0C005B084FEA3202B6EB020E75EB73
:10770000030E22BFB61A754640EA5C005B084FEADA
:107710003202B6EB020E75EB030E22BFB61A7546A7
:1077200040EA9C005B084FEA3202B6EB020E75EBB2
:10773000030E22BFB61A754640EADC0055EA060E73
:1077400018D04FEA051545EA16754FEA06164FEAB6
:10775000C30343EA52734FEAC2025FEA1C1CC0D162
:1077600011F4801F0BD141EA00014FF000004FF0EF
:10777000004CB6E711F4801F04BF01430020B4F1B0
:10778000FD0C88BFBCF5E06F3FF6AFAEB5EB030C68
:1077900004BFB6EB020C5FEA500C50F1000041EB65
:1077A000045170BD0EF0004E4EEA113114EB5C0432
:1077B000C2BFD4EB0C0541EA045170BD41F4801105
:1077C0004FF0000E013C90E645EA060E8DE60CEA0D
:1077D000135594EA0C0F08BF95EA0C0F3FF43BAF2A
:1077E00094EA0C0F0AD150EA01347FF434AF95EAE1
:1077F0000C0F7FF425AF104619462CE795EA0C0FC5
:1078000006D152EA03353FF4FDAE1046194622E791
:1078100050EA410618BF52EA43067FF4C5AE50EA6B
:1078200041047FF40DAF52EA43057FF4EBAE12E75B
:107830004FF0FF3C06E000BF4FF0010C02E000BF3C
:107840004FF0010C4DF804CD4FEA410C7FEA6C5C1F
:107850004FEA430C18BF7FEA6C5C1BD001B050EAC2
:10786000410C0CBF52EA430C91EA030F02BF90EAAD
:10787000020F0020704710F1000F91EA030F58BF6C
:10788000994208BF90422CBFD8176FEAE37040F0CE
:10789000010070474FEA410C7FEA6C5C02D150EA6C
:1078A000013C07D14FEA430C7FEA6C5CD6D152EA27
:1078B000033CD3D05DF8040B704700BF84461046EC
:1078C00062468C461946634600E000BF01B5FFF7EB
:1078D000B7FF002848BF10F1000F01BD4DF808EDBB
:1078E000FFF7F4FF0CBF012000205DF808FB00BF8C
:1078F0004DF808EDFFF7EAFF34BF012000205DF8E6
:1079000008FB00BF4DF808EDFFF7E0FF94BF012032
:1079100000205DF808FB00BF4DF808EDFFF7CEFF33
:1079200094BF012000205DF808FB00BF4DF808ED72
:10793000FFF7C4FF34BF012000205DF808FB00BF43
:107940004FEA4102B2F1E04324BFB3F5001CDCF181
:10795000FE5C0DD901F0004C4FEAC0024CEA5070B9
:10796000B2F1004F40EB830008BF20F001007047E8
:1079700011F0804F21D113F13872BCBF01F00040EB
:10798000704741F480114FEA5252C2F11802C2F11D
:10799000200C10FA0CF320FA02F018BF40F001009E
:1079A0004FEAC1234FEAD32303FA0CFC40EA0C0050
:1079B00023FA02F34FEA4303CCE77FEA625307D18D
:1079C00050EA01331EBF4FF0FE4040F440007047C4
:1079D00001F0004040F0FE4040F40000704700BF5E
:1079E00080F0004002E000BF81F0004142001FBF74
:1079F0005FEA410392EA030F7FEA226C7FEA236C7D
:107A00006AD04FEA1262D2EB1363C1BFD218414071
:107A100048404140B8BF5B42192B88BF704710F007
:107A2000004F40F4000020F07F4018BF404211F0AA
:107A3000004F41F4000121F07F4118BF494292EA12
:107A4000030F3FD0A2F1010241FA03FC10EB0C003E
:107A5000C3F1200301FA03F100F0004302D54942CB
:107A600060EB4000B0F5000F13D3B0F1807F06D378
:107A700040084FEA310102F10102FE2A51D2B1F170
:107A8000004F40EBC25008BF20F0010040EA030065
:107A90007047490040EB000010F4000FA2F1010212
:107AA000EDD1B0FA80FCACF1080CB2EB0C0200FA9C
:107AB0000CF0AABF00EBC25052421843BCBFD040EA
:107AC0001843704792F0000F81F4000106BF80F464
:107AD00000000132013BB5E74FEA41037FEA226C27
