:020000040010EA
:1020000000D8FF3F1978100055781000577810005D
:10201000597810005B7810005D7810000000000017
:10202000000000000000000000000000594C1000FB
:102030006178100000000000C34C1000F94C100043
:10204000E56410005166100067781000795F100099
:1020500067781000677810008953100067781000C7
:1020600067781000677810006778100067781000B4
:1020700067781000677810006778100067781000A4
:102080006778100067781000677810006778100094
:1020900000D8FF3F197810005578100057781000CD
:1020A000597810005B7810005D7810000000000087
:1020B000000000000000000000000000594C10006B
:1020C0006178100000000000C34C1000F94C1000B3
:1020D000E56410005166100067781000795F100009
:1020E0006778100067781000895310006778100037
:1020F0006778100067781000677810006778100024
:102100006778100067781000677810006778100013
:102110006778100067781000677810006778100003
:10212000044B05481B1A062B02D9044B03B1184770
:10213000704700BF5F41FF3F5C41FF3F0000000070
:1021400005490648091A891001EBD171491002D0DE
:10215000034B03B1184770475C41FF3F5C41FF3FB1
:102160000000000010B5064C237843B9FFF7D8FFF4
:10217000044B13B10448AFF300800123237010BD5A
:102180005C41FF3F0000000018EE100008B5084B4E
:102190001BB108490848AFF300800848036813B929
:1021A000BDE80840CCE7064B002BF9D09847F7E78D
:1021B000000000006041FF3F18EE10005C41FF3F4F
:1021C0000000000000B583B00190074A019B1A602F
:1021D0000023002B02D0019805F04BFB019B184611
:1021E00003B05DF804FB00BFB8E8100000B583B091
:1021F00001900198FFF7E6FF019805F03AFB019B7B
:10220000184603B05DF804FB00B583B00190074A9F
:10221000019B1A600023002B02D0019805F029FBD6
:10222000019B184603B05DF804FB00BFD0E210002C
:1022300000B583B001900198FFF7E6FF019805F023
:1022400018FB019B184603B05DF804FB00B5C5B050
:1022500002AB5F4A106818609188927999809A71F0
:102260005C495D4805F016FA5C4800F073FD0346D2
:10227000B3F1FF3F0CBF01230023DBB2002B05D0DD
:102280005749554805F006FA00239CE05549524845
:1022900005F000FA24AA14230093802352494F48E2
:1022A00000F03AFC0346002B0CBF01230023DBB2F5
:1022B000002B05D024AB80221946484800F002FCD0
:1022C00024AA80230021454800F046FC0346002B49
:1022D0000CBF01230023DBB2002B1BD024AB1A461A
:1022E00042493D4805F0D6F924AA04AB40491846B6
:1022F00008F074FC04AB80221946384800F0E2FB79
:1023000024AB80221946354800F0DCFB4FF08040BA
:1023100002F07CFE24AA80230B21304800F01CFC34
:102320000346002B0CBF01230023DBB2002B1BD084
:1023300024AB1A462F49284805F0ACF924AA04AB6F
:102340002D49184608F04AFC04AB80221946234860
:1023500000F0B8FB24AB80221946204800F0B2FB05
:102360004FF0804002F052FE4FF07E5002F04EFEE1
:1023700002AA04AB1146184608F030FC24AA04A9AE
:10238000142301938023009313460022134800F086
:102390000BFC0346002B14BF01230023DBB2002BF0
:1023A00004D016490C4805F075F903E014490A48B1
:1023B00005F070F94FF07E5002F028FE11490648F2
:1023C00005F068F90023184645B05DF804FB00BF2E
:1023D000BCE21000CCE110001844FF3F3044FF3F46
:1023E000E4E11000FCE1100018E210001CE2100013
:1023F00034E2100038E2100044E2100050E2100015
:102400006CE210008CE2100010B582B00190054C17
:10241000054B9C4204D0183C204605F07CFAF7E7B7
:1024200002B010BD1043FF3F9041FF3FF0B589B0AF
:1024300003900291039B012B40F0A280029B4FF678
:10244000FF72934240F09C8004AB184605F024FADA
:1024500004AB1A464C494D4805F088FA04AB1846BF
:1024600005F01BFA4A4A4B49484805F0FDF94A4B2A
:1024700007241E46B4F1FF3F0ED0334601251F4608
:10248000B5F1FF3F05D0384605F03EFA1837013D5B
:10249000F6E73036013CEDE73D4A4049002005F0C3
:1024A000E3F905AB184605F0F7F905AB1A463649CE
:1024B0003B4805F05BFA05AB184605F0EEF9344AE7
:1024C0003449374805F0D0F906AB184605F0E4F971
:1024D00006AB1A462C49334805F048FA06AB1846B5
:1024E00005F0DBF92A4A2B492E4805F0BDF907AB68
:1024F000184605F0D1F907AB1A4623492A4805F0DA
:1025000035FA07AB184605F0C8F9214A2149264893
:1025100005F0AAF94FF0FF33009310234022202149
:10252000224804F047FF1A4A2149204805F09CF947
:102530000023022201211F4804F058FE144A1E49BC
:102540001C4805F091F91D4800F002FE104A1C4994
:102550001A4805F089F900234FF400724FF4807196
:10256000184804F043FE0A4A1349164805F07CF95E
:10257000154800F0D3F8064A1449134805F074F9D9
:1025800000BF09B0F0BD00BFC4E210007841FF3FBA
:102590000040FF3F177910009041FF3F09241000D1
:1025A0001043FF3F2843FF3F4043FF3F5843FF3F57
:1025B000C52110006C43FF3FD1251000C443FF3FED
:1025C0009D311000D843FF3F3044FF3F7527100076
:1025D00000B583B001900E4A019B1A600D4A019B21
:1025E0001A640D4A019B5A64019B4033184604F05B
:1025F0007FFF019B1846FFF707FE0023002B02D048
:10260000019805F036F9019B184603B05DF804FB0C
:102610005CE8100074E81000A8E81000A0F1400089
:10262000D6E700BFA0F14400D2E700BF00B583B0F9
:1026300001900198FFF7CCFF019805F01AF9019B72
:10264000184603B05DF804FBA0F14000EEE700BFC0
:10265000A0F14400EAE700BF08B54FF6FF71012082
:10266000FFF7E4FE08BD00BF00B583B00A4A0B4B7C
:10267000D31A0193019B1A460021084806F049FF2E
:1026800002F0A0FA06F07CFE03F0CAF904F058FD4F
:102690000090009806F0B6FA0053FF3F5C41FF3F00
:1026A00000B583B00190019B022B01DC012303E004
:1026B000019804F0DBFC0346184603B05DF804FB08
:1026C00082B0EFF305830193019B002B00D000BE85
:1026D00000BF02B0704700BF00B583B00190FFF7A4
:1026E000EFFF019806F0C2FE0346184603B05DF8FE
:1026F00004FB00BF00B583B00190FFF7E1FF019834
:1027000006F0BCFE00BF03B05DF804FB08B5012075
:1027100006F078FA08B5FFF7F9FF00BF00B585B0FD
:102720000390039800230222012104F05FFD039B24
:1027300003F158004FF0FF330093302304220821A7
:1027400000F06AFB039B0022C3F8BC20039B00221D
:10275000C3F8C020039BC433184604F0CDFF039B8D
:102760004FF41651184604F0BFFD039B184605B000
:102770005DF804FB00B583B00190019B03F15800A4
:1027800001230722002100F0A3FB019800F02CFB9D
:10279000019B5833184600F0CDFC019B1846FFF70B
:1027A00017FF019B184603B05DF804FB30B587B0F6
:1027B000039002910192009300230593039BC4337D
:1027C000184604F0B3FF039B184604F09FFD034630
:1027D000012B0CBF01230023DBB2002B3CD0039B59
:1027E0004033184604F0CEFE03468DF81330029AAB
:1027F000059B13449DF813201A709DF813300A2B83
:1028000010D1029A059B134400221A70039BC43313
:10281000184604F0A1FF039BC433184604F0EAFFF6
:1028200000233DE0059B01330593059A019B9A42E5
:1028300012D3019B013B029A134400221A70039B9E
:10284000C433184604F088FF039BC433184604F0D1
:10285000D1FF6FF0020323E0039BC433184604F05A
:102860009DFF0546009805F06FFF024601231C46B8
:102870001146284606F07CF90346002B01D10023BF
:102880001C46E3B2002B9ED0039BC433184604F0D1
:1028900063FF039BC433184604F0ACFF6FF00103E1
:1028A000184607B030BD00BF10B584B0019000914C
:1028B00000230393019BC433184604F037FF009AAA
:1028C000039B13441B780A2B3BD0019B184604F052
:1028D0002BFD0346012B0CBF01230023DBB2002B91
:1028E0002DD0019B03F14000009A039B13441B78F9
:1028F000194604F01FFE039B01330393019BC4336D
:10290000184604F04BFF024601231C462B49104693
:1029100006F02EF90346002B01D100231C46E3B23A
:10292000002BCCD0019BC433184604F015FF019B4B
:10293000C433184604F05EFF6FF001033BE000BFB4
:10294000BDE7019BC433184604F0F0FE019B184616
:1029500004F0EAFC0346012B0CBF01230023DBB289
:10296000002B08D0019B40330A21184604F0E2FDF9
:1029700000BF00231FE0019BC433184604F00EFF84
:10298000024601231C460D49104606F0F1F80346A5
:10299000002B01D100231C46E3B2002BD6D0019BB3
:1029A000C433184604F0D8FE019BC433184604F023
:1029B00021FF6FF00103184604B010BD0000A040D5
:1029C00030B585B00190009100230393019BC4337F
:1029D000184604F0ABFE019B184604F097FC034632
:1029E000012B0CBF01230023DBB2002B41D0019B44
:1029F0004033184604F0C6FD03468DF80B3002AA9A
:102A0000039B13449DF80B201A709DF80B300A2B82
:102A10001CD102AA039B134400221A70019BC433E9
:102A2000184604F099FE019BC433184604F0E2FEF8
:102A300002AB02222249184608F075F90346002B22
:102A400001D1002339E04FF0FF3336E0039B01331F
:102A50000393039B032B0CD9019BC433184604F04A
:102A60007BFE019BC433184604F0C4FE6FF00203E2
:102A700023E0019BC433184604F090FE05460098FD
:102A800005F062FE024601231C461146284606F068
:102A90006FF80346002B01D100231C46E3B2002B44
:102AA00099D0019BC433184604F056FE019BC433F1
:102AB000184604F09FFE6FF00103184605B030BDC4
:102AC000D8E2100086B00390029101920023059392
:102AD000059A019B9A4208DA059B029A1344002248
:102AE0001A70059B01330593F2E700BF06B07047EB
:102AF00000B585B0039002910192039B4033029987
:102B0000184604F02BFD01990398FFF759FF03467F
:102B1000184605B05DF804FB00B585B0039002913E
:102B20000192009302990398FFF7BEFE0346002B23
:102B30000CBF01230023DBB2002B07D0009A069BB9
:102B400001990398FFF732FE034601E04FF0FF338F
:102B5000184605B05DF804FB00B58FB005900491F0
:102B60000392029306AB202219460598FFF7AAFFAD
:102B7000049B0B2B0FD806AB049A0A49184608F0A1
:102B80002DF806A914230093029B039A0598FFF7DA
:102B9000C3FF034601E06FF0030318460FB05DF872
:102BA00004FB00BF20E3100000B589B00790069138
:102BB000049313468DF817309DF81730002B07D07B
:102BC000049B002B04D00A9A0021049806F0A1FC73
:102BD000069808F0A0F801469DF817200B9B029379
:102BE0000A9B0193049B009313460A460699079893
:102BF00000F006F80346184609B05DF804FB00BF74
:102C000000B5A1B00390029101928DF80330019BB1
:102C10000C2B02D96FF003038EE09DF80330002BDC
:102C200005D0229B002B02D16FF0030384E010AB90
:102C3000434A92E8030018600433198002330A0CF7
:102C40001A7000231F931F9A019B9A420CD2029A7A
:102C50001F9B13441B7810AA10A83A4907F0BEFF27
:102C60001F9B01331F93EEE79DF80330002B01D02B
:102C7000012300E0002310AA10A8334907F0AEFF9B
:102C800010AB249A19460398FFF732FF1C901C9B47
:102C9000002B01D01C9B4FE000231E939DF80330B6
:102CA000002B48D005A9249B28220398FFF77EFD1E
:102CB0001C901C9B002B01D01C9B3DE005AB03220C
:102CC0002249184606F0F0FB0346002B02D04FF0D5
:102CD000FF3331E005AB03331B931B9808F01BF85F
:102CE0001A9000231D931D9A1A9B9A4223D2002307
:102CF0000F931B9A1D9B13440FAA1549184607F002
:102D000091FF239B5A1E2392002B14BF0123002303
:102D1000DBB2002B0CD0229B5A1C22920F9AD2B20B
:102D20001A701E9B01331E931D9B03331D93DAE71C
:102D30006FF0020300E01E9B184621B05DF804FB13
:102D400048E3100050E3100058E3100060E3100067
:102D500064E3100000B583B00190019B03F15800BB
:102D600000230022012100F023F9019B03F1580008
:102D700000230122012100F01BF9019B03F15800FF
:102D800000230722002100F013F9019B03F15800F2
:102D900001230022012100F09BF8019B03F1580060
:102DA00001230122012100F093F8019B03F1580057
:102DB00000230722002100F08BF8019B58330021EB
:102DC000184600F063F803467F2B14BF012300234D
:102DD000DBB2002B02D04FF0FF3300E00023184697
:102DE00003B05DF804FB00BF00B583B00190019B08
:102DF00003F1580000230022012100F069F8019B33
:102E000003F1580000230122012100F061F800BF06
:102E100003B05DF804FB00BF00B585B003900291DC
:102E200001928DF80330039B019A0299184603F032
:102E30006FFE039B0C330699184603F003FF039BB8
:102E40009DF803201A720449039800F007F8039BC9
:102E5000184605B05DF804FB40420F0000B585B090
:102E60000190009101230393039B83F31188019B3D
:102E70000099184603F06AFE00230293029B83F335
:102E8000118800BF05B05DF804FB00BF00B585B038
:102E900001900B468DF803309DF80330002B02D0D3
:102EA000012B04D007E000238DF80F3003E001234D
:102EB0008DF80F3000BF9DF80F301946019800F0D3
:102EC00009F90290029B184605B05DF804FB00BFAB
:102ED00000B587B00190084611461A4603468DF8A2
:102EE00003300B468DF8023013468DF801309DF902
:102EF0000230002B03DB9DF90230072B04DD562244
:102F000029492A4801F0CEFF01230393039B83F351
:102F100011889DF80330002B02D0012B04D007E06C
:102F200002238DF8163003E003238DF8163000BF1E
:102F30009DF816301946019800F0CCF803468DF83C
:102F400017309DF80130002B0ED0012B1BD19DF9BD
:102F50000230012202FA03F3DAB29DF8173013436C
:102F6000DBB28DF817300EE09DF90230012202FA33
:102F700003F3DBB2DB43DAB29DF817301340DBB268
:102F80008DF8173000BF9DF817209DF816301946B0
:102F9000019800F075F800230493049B83F31188D3
:102FA00000BF07B05DF804FB94E31000A8E3100035
:102FB00000B585B00190084611461A4603468DF8C3
:102FC00003300B468DF8023013468DF801309DF921
:102FD0000230002B03DB9DF90230072B04DD722247
:102FE0002549264801F05EFF9DF80330002B02D0F2
:102FF000012B04D007E006238DF80E3003E00723F1
:103000008DF80E3000BF9DF80E301946019800F083
:1030100061F803468DF80F309DF80130002B02D087
:10302000012B0FD01BE09DF90230012202FA03F3BD
:10303000DBB2DB43DAB29DF80F301340DBB28DF820
:103040000F300CE09DF90230012202FA03F3DAB2EC
:103050009DF80F301343DBB28DF80F3000BF9DF8A1
:103060000F209DF80E301946019800F009F800BFB6
:1030700005B05DF804FB00BF94E31000A8E3100066
:1030800000B589B003900B468DF80B3013468DF8D0
:103090000A3001230793079B83F311889DF80B30B7
:1030A0008DF814309DF80A308DF815300398039B85
:1030B0001B7A194605AA00230093022303F076FD2C
:1030C00000230693069B83F3118800BF09B05DF8C7
:1030D00004FB00BF00B589B003900B468DF80B30A0
:1030E0009DF80B308DF8163001230793079B83F36F
:1030F00011880398039B1B7A19460DF116020123D0
:103100000093012303F052FD0398039B1B7A194699
:103110000DF1170200230093012303F06DFD00233E
:103120000693069B83F311889DF81730184609B063
:103130005DF804FB00B583B00190019B0C33184689
:1031400003F0BCFD019B184603B05DF804FB00BF13
:1031500000B583B00190019B08330C220021184672
:1031600006F0D7F9019B03F10802019B5A60019B0D
:103170000433184600F04AFB0246019B1A60019B8B
:103180001B68002B02D1044803F0DEFA019B1846AD
:1031900003B05DF804FB00BFC4E3100000B583B0CA
:1031A0000190019B1B68184600F05CFB019B1846D0
:1031B00003B05DF804FB00BF84B00190019BB3F144
:1031C000FF3F02D14FF6FF731DE0019B0F4A934270
:1031D00002D94FF6FE7316E0019B4FF47A7202FBA0
:1031E00003F20B4B1B6813445A1E094B1B68B2FBBE
:1031F000F3F30393039B4FF6FE72934202D94FF60B
:10320000FE7300E0039B184604B0704700093D00C0
:10321000F8E3100084B00190019B002B01D1002342
:103220000FE0019B03F00303002B01D0002308E013
:10323000019B0393039B1B78002B01D0002300E02C
:10324000039B184604B0704782B00190019B03F0C5
:103250000303002B01D0002300E0019B184602B0BD
:10326000704700BF08B50A4B1B78002B01D0002324
:103270000CE001F0F3FB074B1B68FF229A70002063
:1032800001F086FC024B01221A700023184608BD8B
:10329000A847FF3FE447FF3F00B583B0164B1B78BC
:1032A000002B01D0002322E00021144800F0F4FAA2
:1032B0000246134B1A600021124800F0ADF8024696
:1032C000114B1A600021002001F00EFB0F4B1B6810
:1032D0009B6A20330193019B83F309880B4B0022E7
:1032E0001A6001F01FFC044B01221A7000231846DB
:1032F00003B05DF804FB00BFA947FF3F4840FF3F14
:10330000AC48FF3F0440FF3FA848FF3FE447FF3F72
:1033100010B582B0EFF305840094009C002C01D01E
:10332000822310E0EFF314840194019C04F0010463
:10333000002C03D1FFF796FF034604E0DFF80CC032
:1033400000DF034600BF184602B010BD6532100012
:1033500010B58EB0EFF305840894089C002C01D0C2
:10336000822351E0EFF314840D940D9C04F00304C8
:10337000032C44D80FF2040E5EF824F08D331000B5
:10338000C5331000C9331000E93310006C462034F7
:103390000C940C9C84F309881D4C247804F00104DF
:1033A000002C05D002240B940B9C84F3148804E0B9
:1033B00003240A940A9C84F31488BFF34F8FBFF34D
:1033C0006F8F1CE0FF231FE0114C247804F00104F0
:1033D000002C11D103240994099C84F31488BFF3B1
:1033E0004F8FBFF36F8F07E0094C247804F001047E
:1033F000002C03D0FF2307E000BF00E000BFDFF890
:1034000014C000DF034600BF18460EB010BD00BF59
:10341000F4E310009932100000B587B001900091DC
:10342000019B002B16D0019B1B68002B12D0019B27
:103430009B881BB213F1030F0CDB019B9B881BB213
:10344000032B07DC019B9B68002B03D0019BDB68EF
:10345000002B04D1802001F09BFB002338E0019B6E
:103460009B88DBB204338DF81730019B1033049333
:10347000019BDA68049BDA62019B9A68049B5A629A
:1034800001F060F90390039B013B1349049A41F852
:103490002320039BDAB2049BDA70049B009ADA6162
:1034A000019B1A689DF817301946049801F068F9D5
:1034B000049801F0A9F9039B013B074A52F8233015
:1034C0000293029B9B6A34331A46044B1360029B9F
:1034D000184607B05DF804FBD050FF3FA935100037
:1034E00000B583B001F0F2F90190019B002B01D1EE
:1034F000002304E0019B013B034A52F823301846A5
:1035000003B05DF804FB00BFD050FF3F00B585B0AD
:1035100001900198FFF77EFE0390039B002B01D1E1
:1035200080230BE0039BDB78184601F03DFA029004
:10353000029BFF2B01D1812300E00023184605B038
:103540005DF804FB00B587B001900091EFF30581B1
:1035500003910399002901D000231CE0EFF31481AB
:103560000591059901F00101002909D10C4909785B
:10357000002905D100990198FFF74EFF03460AE0A4
:10358000019904910099029104980299DFF814C0FE
:1035900000DF034600BF184607B05DF804FB00BF1C
:1035A000A947FF3F1934100000B583B0DFF810C001
:1035B00000DF01900198DFF80CC000DFFEE700009B
:1035C000E13410000D35100084B00190009100230B
:1035D00002931C4B1B68039310E0039B1B891A4644
:1035E000009B9A420ED8039B1B891A46009B9B1A8C
:1035F0000093039B0293039B1B680393039B002B85
:10360000EBD100E000BF019B039A1A60009B9AB2C5
:10361000019B1A81039B002B07D0039B1A89019BF6
:103620001B89D31A9AB2039B1A81029B002B03D0E9
:10363000029B019A1A6002E0024A019B136000BFDC
:1036400004B07047AC47FF3F10B586B001900198B9
:10365000FFF7FAFD0590059B002B0ED10023039385
:1036600000230493039B1946049B1A464FF0000362
:103670004FF000040B46144610E0059B1B691B68C5
:103680000393059BDB680493039B1946049B1A462E
:103690004FF000034FF000040B4614461846214635
:1036A00006B010BD00B583B01A4B1B680193019B97
:1036B000002B2BD0019B1B89013B9AB2019B1A81E5
:1036C0001CE0019B0093019B1B680193114A019B25
:1036D0001360114B1B6800990022184600F06EF928
:1036E000009B5B79012B06D1009B5B8919460098F2
:1036F000FFF76AFF02E0009B01221A71019B002B79
:1037000005D0019B1B89002BDBD000E000BF03B07C
:103710005DF804FBAC47FF3FAC48FF3F00B585B008
:1037200001900091009803900398DFF81CC000DF1F
:103730000B461A46019B1860019B5A6000BF019816
:1037400005B05DF804FB00004936100000B589B0F3
:1037500001900C4B196803AB4FF0FF32184600F094
:1037600097F9039B102BF4D1049A06AB1146184627
:10377000FFF7D4FF069B002BEBD0069B079A104661
:103780009847E6E7AC48FF3F00B585B00190019B44
:10379000002B04D1802001F0FBF9002317E0019BEE
:1037A0001B680393039B002B04D1802001F0F0F9E8
:1037B00000230CE0039B1B78002B04D0802001F039
:1037C000E7F9002303E0039800F006FE039B184688
:1037D00005B05DF804FB00BF00B585B0019001980D
:1037E000FFF732FD0390039B002B01D1802309E0FA
:1037F000039B1B78032B01D0802303E0039800F088
:1038000001FE0023184605B05DF804FB00B587B043
:103810000190EFF3058003900398002801D0002366
:1038200018E0EFF314800590059800F001000028DF
:1038300008D10A480078002804D10198FFF7A4FFB6
:10384000034607E0019804900498DFF814C000DFF5
:10385000034600BF184607B05DF804FBA947FF3FC9
:103860008937100000B585B00190EFF30580029014
:103870000298002801D0822307E001980390039862
:10388000DFF810C000DF034600BF184605B05DF842
:1038900004FB0000D937100000B583B001900091FF
:1038A000019B002B07D0019B1B68002B03D0019BC1
:1038B0005B68002B04D1802001F06AF9002317E037
:1038C000019B5B681B78002B04D0802001F060F91D
:1038D00000230DE0019B5A68019B1B6804339BB2D7
:1038E0009B009BB21946104600F074FB019B5B687D
:1038F000184603B05DF804FB2DE9F04786B001904F
:103900000091019B002B0CD180230293029A00238B
:1039100000240025002613461F46A046A946B246AD
:1039200041E0019B1B78012B0CD080230293029A6B
:10393000002300240025002613461F46A046A94662
:10394000B24630E00098FFF737FC03469AB202AB6C
:1039500004331946019800F063FB0590059B012B89
:1039600013D1009B002B01D0402300E000230293E1
:103970000299039A00230024002500260B461446D2
:103980001F46A046A946B2460DE0102302930299B5
:10399000039A00230024002500260B4614461F46E8
:1039A000A046A946B2463B4644464D4656461846B2
:1039B00021462A46334606B0BDE8F08700B585B0FB
:1039C000039002910192039B002B02D0019B002BDC
:1039D00001D0802313E0039B1B78012B01D08023AF
:1039E0000DE0039800F0AAFB0346002B01D18123D0
:1039F00005E0029B1946039800F0AEFB0023184631
:103A000005B05DF804FB00BF10B588B003900291CB
:103A10000192029B002B02D0019B002B09D0802336
:103A20000493039B1C4604AB93E8070084E807005B
:103A30002AE0029B1B78012B09D080230493039B6F
:103A40001C4604AB93E8070084E807001CE004ABC5
:103A500004331946029800F091FB0790079B042B52
:103A600009D000230493039B1C4604AB93E8070092
:103A700084E8070008E010230493039B1C4604AB72
:103A800093E8070084E80700039808B010BD00BF62
:103A900000B589B0039002910192EFF30581069180
:103AA0000699002906D0039B019A02991846FFF750
:103AB000ABFF13E0029907910199059107980599C9
:103AC000DFF820C000DF0346184613461A46039B62
:103AD0001860039B5960039B9A6000BF039809B06C
:103AE0005DF804FBF938100000B585B001900B4675
:103AF000ADF80230019B1A8BBDF8023013439AB225
:103B0000019B1A83019B5B8BADF80E30019B5B78A8
:103B1000062B09D1019B1A8BBDF80E3013409BB2C6
:103B2000BDF80E209A4214D0019B5B78052B2ED154
:103B3000019B1A8BBDF80E3013409BB2002B26D090
:103B4000019B5A8B019B1B8B13409AB2019B5A839A
:103B500000E000BF019B1B8B9AB2BDF80E30DB4327
:103B60009BB213409BB29AB2019B1A83019800F05A
:103B7000DBF9019B01225A70019B5B8B1A460821DD
:103B8000019801F039F90199034800F031F800BFBC
:103B900005B05DF804FB00BFB047FF3F88B003905D
:103BA00002910192EFF31083059372B6029B1B788A
:103BB0000793079A039B9A4215D2079BDBB2013306
:103BC000DAB2029B1A70019B1B780793079B0133A3
:103BD0000693069A039B9A4201D100230693069B03
:103BE000DAB2019B1A7062B6079B184608B070479C
:103BF00086B00190009100230493019B1B78022B57
:103C000007D0019B1B78012B03D0019B1B78032B52
:103C100001D101230493009B9B780393019B5B6874
:103C2000059304E0059B0193059B5B680593059B49
:103C3000002B05D0059B9B781A46039B9A42F1D234
:103C4000009B059A5A60019B009A5A60049B002BC6
:103C500009D0059B002B02D0059B009A9A60009B1F
:103C6000019A9A6002E0009B00229A6000BF06B0B1
:103C7000704700BF84B00190019B5B680393039B76
:103C80005A68019B5A60019B1B78022B07D0019B4D
:103C90001B78012B03D0019B1B78032B0ED1039BB8
:103CA0005B68002B06D0039B5B68019A9A60039BBC
:103CB00000225A60039B00229A6002E0039B0022CC
:103CC0005A60039B184604B0704700BF82B0019051
:103CD000064B5A68019B5A60019B00229A60034A76
:103CE000019B536000BF02B0704700BFB047FF3F69
:103CF00000B585B00190019B9B68002B06D1019B0C
:103D00005B78012B14D10C4B03930AE0019B9B6859
:103D1000039302E0039B9B680393039B1B78002B98
:103D2000F8D0019800F0D2F801990398FFF760FFEE
:103D300000BF05B05DF804FBB047FF3F86B00190BF
:103D40000B46ADF80230BDF8023003932B4B0593C0
:103D5000059BDB68002B02D10023049307E0274B6F
:103D60009B8A049321E0059BDB68002B14D1019B07
:103D70000022DA60059B019ADA60019B059A1A61BC
:103D8000039B9AB2049B9BB2D31A9AB2059B9A8268
:103D9000019B00229A822EE0059BDB680593059B20
:103DA0009B8A1A46049B13440493049A039B9A42E9
:103DB000D9D3059BDA68019BDA60059B019ADA602A
:103DC000019B059A1A61019BDB68002B03D0019BC4
:103DD000DB68019A1A61049B9AB2039B9BB2D31AC7
:103DE0009AB2019B9A82059B9A8A019B9B8AD31A5D
:103DF0009AB2059B9A8206B0704700BFC847FF3F42
:103E000000B583B02E4BDB68002B54D02C4B9B8A23
:103E1000013B9AB22A4B9A8244E0294BDB6801931A
:103E2000019B9B68002B13D0019B9B68019A5268F1
:103E30005A60019B5B68002B07D0019B5B68019A6D
:103E400092689A60019B00225A60019B00229A604E
:103E500001991C48FFF7CCFE019B9A8A184B9A8265
:103E6000019B5B78042B08D1019BDA8A164B1B68F7
:103E70009BB213449AB2019B9A82019B01225A7011
:103E8000019BDB680E4AD360019BDB68002B06D0E8
:103E9000019BDB680A4A1A61019B0022DA60019BE0
:103EA00000221A61064B9B8A002B05D1044BDB686C
:103EB000002BB2D100E000BF03B05DF804FB00BFEF
:103EC000C847FF3FB047FF3F2048FF3F84B0019005
:103ED000019B9B68002B0ED0019B9B68019A526846
:103EE0005A60019B5B68002B19D0019B5B68019AAB
:103EF00092689A6013E00B4B03930CE0039B5A68A3
:103F0000019B9A4204D1019B5A68039B5A6007E0C7
:103F1000039B5B680393039B002BEFD100E000BF82
:103F200004B07047B047FF3F84B00190019B1B690C
:103F30000393039B002B1DD0019BDA68039BDA607F
:103F4000019BDB68002B0FD0039B9A8A019B9B8A05
:103F500013449AB2039B9A82019BDB68039A1A610D
:103F6000019B0022DA6002E0039B00229A82019BFF
:103F700000221A6100BF04B0704700BF00B585B0D1
:103F800001900091114BDB781846114B0F4A1946EE
:103F9000FFF704FE03900D4BDB781A46039B9A4211
:103FA0000CD90A4A039BDB001344019A5A60074A62
:103FB000039BDB001344009A9A6002E0022000F0A9
:103FC000DDFD00BF05B05DF804FB00BF2448FF3FE6
:103FD0002648FF3F84B001900B46ADF80230019BAC
:103FE0000393039B01221A70039B00225A70039BC8
:103FF00000229A70039B00225A60039B00221A81C0
:10400000039B00225A81039B00229A81BDF8023053
:10401000103B9B089AB2039BDA8100BF04B0704743
:1040200000B589B0039002911346ADF80630039BAA
:104030000793079B9B89002B53D0079B5B891A46EC
:10404000079B043253F82220029B1A60079B5B896E
:1040500001339AB2079B5A81079B5A89079BDB89D8
:104060009A4202D1079B00225A81079B5B68002B72
:104070002AD0079B5B78022B26D10798FFF7FAFD21
:1040800006900021069800F0A7FE079B1B891A46A0
:10409000069BD969079B043243F82210079B1B89B2
:1040A00001339AB2079B1A81079B1A89079BDB8908
:1040B0009A4202D1079B00221A810698FFF734FF2B
:1040C000069800F0A1FB0AE0EFF31083059372B6A7
:1040D000079B9B89013B9AB2079B9A8162B600239A
:1040E00026E0BDF80630002B01D1012320E0079B1C
:1040F0005B68002B06D0104B1B6819460798FFF72A
:1041000077FD0EE00C4B1A68079B5A600A4B1B6840
:1041100000225A60084B1B68079A9A60079B01228D
:104120005A70BDF806300821184600F09FFB0123A5
:10413000184609B05DF804FBE447FF3F84B00190E6
:10414000019B0393039BDB891A46039B9B89D31A2C
:10415000184604B0704700BF00B585B001900091CB
:10416000019B0393009B19460398FFF707FF00F09C
:10417000E1F900BF05B05DF804FB00BF00B585B0F4
:1041800001900091019B0393039B9B89002B2ED0F0
:10419000039B5B891A46039B043253F82220009B41
:1041A0001A60039B5B78022B05D100210398FFF76F
:1041B000E5FE00F0BFF9EFF31083029372B6039BA4
:1041C0009B89013B9AB2039B9A8162B6039B5B89F0
:1041D00001339AB2039B5A81039B5A89039BDB8963
:1041E0009A4202D1039B00225A81042300E000235B
:1041F000184605B05DF804FB00B587B0019000914A
:10420000019B5B68002B70D0019B5B78022B20D058
:10421000032B02D0012B52D095E0009800F09AF8C1
:104220000590059B002B00F08D800198FFF722FD83
:104230000490059B1946049800F0CEFD049B0122D2
:104240005A700498FFF770FE04994148FFF7D0FCBC
:1042500079E00198FFF70EFD04900021049800F02A
:10426000BBFD019B1B891A46049BD969019B043243
:1042700043F82210EFF31083039372B6019B9B89DE
:1042800001339AB2019B9A8162B6019B1B8901336B
:104290009AB2019B1A81019B1A89019BDB899A4280
:1042A00002D1019B00221A81049B01225A700498BA
:1042B000FFF73AFE04992648FFF79AFC43E001987D
:1042C000FFF7D8FC0490009B1A461021049800F0D8
:1042D00093FD049B01225A700498FFF725FE049970
:1042E0001B48FFF785FC00BF2DE0019B9A89019BCD
:1042F000DB899A4222D2019B1B891A46019B043218
:10430000009943F82210EFF31083029372B6019BD9
:104310009B8901339AB2019B9A8162B6019B1B89EA
:1043200001339AB2019B1A81019B1A89019BDB8997
:104330009A4208D1019B00221A8104E0032000F078
:104340001DFC00E000BF00BF07B05DF804FB00BF2C
:10435000B047FF3F86B00190EFF31083039372B62E
:10436000039B03F001030593019B1B680493049BCB
:10437000002B03D0049B1A68019B1A60059B002B3D
:1043800000D162B6049B184606B0704784B0019015
:104390000091009A019B9A4204D3019B5A68009BAA
:1043A0009A4201D8012313E0EFF31083029372B60F
:1043B000029B03F001030393019B1A68009B1A60A0
:1043C000019B009A1A60039B002B00D162B6002368
:1043D000184604B0704700BF84B00190019B03935E
:1043E000039B03221A70039B00225A70039B002236
:1043F0005A80039B00225A60039B00229A6000BFF0
:1044000004B0704700B585B00190019B0393039BF6
:104410005B88002B22D0039B9B68039A52789A708A
:10442000039B9A68204B1B689A4217D0039B9B689A
:104430001846FFF75DFC11E00398FFF71BFC0290A4
:104440000021029800F0C8FC0298FFF76DFD029B66
:1044500001225A7002991548FFF7CAFB039B5B685B
:10446000002BE9D1114B5B68002B14D00F4B5B681C
:104470009A780D4B1B689B789A420CD90A4B1B68A3
:1044800019460A48FFF7B4FB074B1B6801225A7014
:10449000002000F0B9F9039B00221A70002318468F
:1044A00005B05DF804FB00BFE447FF3FB047FF3FA6
:1044B00000B585B00190019B5B68002B12D001987C
:1044C000FFF7D8FB03900398FFF72EFD039B012213
:1044D0005A700121039800F07FFC03990648FFF70A
:1044E00087FB05E0019B5B8801339AB2019B5A80F0
:1044F00000BF05B05DF804FBB047FF3F084A094B19
:104500001B681360084B00221A60084B07221A60D0
:10451000074A074B1B6843F07F43136000BF704797
:1045200014E000E0F0E3100018E000E010E000E02C
:1045300020ED00E0074B1B78DBB2002B04D1064BCB
:104540004FF080521A6002E0044B01221A7000BF43
:10455000704700BF0445FF3F04ED00E00545FF3F05
:1045600000B585B02D4B1B6801225A702B4B1B6880
:104570001846FFF7ABFB2A4B5B7803933AE0284AD7
:10458000039BDB0013445B680293029B1B78002BA8
:104590000AD1234A039BDB0013449B689BB2194654
:1045A0000298FFF7A1FA10E0029B1B78012B09D1BA
:1045B0001B4A039BDB0013449B6819460298FFF7D4
:1045C0001BFE02E00298FFF773FF039B0133039386
:1045D000134BDB781A46039B934201D100230393CC
:1045E000EFF31083019372B60E4B1A78013AD2B2F0
:1045F0001A7062B60A4B9B78002BC0D1084B039A05
:10460000D2B25A700848FFF735FB0090009800F0CE
:10461000EDF800BF05B05DF804FB00BFE447FF3FC5
:104620002448FF3F2648FF3FB047FF3F08B5FFF74C
:1046300065FF4FF0FF33184608BD00BF00BF70474D
:1046400000B583B00F4B1B6801225A700D4B1B68DD
:104650001846FFF73BFB00F0F1FB0B4B1B680133E7
:10466000094A1360FFF7CCFBFFF71CF80748FFF778
:1046700001FB0190019800F0B9F800BF03B05DF8AC
:1046800004FB00BFE447FF3F2048FF3FB047FF3F28
:1046900008B50C4B1B68DB78012B11D0094B1B684C
:1046A0009B6A084A1268D26A934206D3054B1B687C
:1046B000DB6A1B68044A934202D0012000F05EFAD4
:1046C00000BF08BDE447FF3FA52E5AE284B01A4A56
:1046D000194B1B6843F47F031360174B1B681B02C5
:1046E00003F07F43DB430193019BB3FA83F38DF81F
:1046F00003309DF80330C3F1080303930F4B1B688D
:104700001B0A03F007030293029A039B9A4202DBFF
:10471000029B013303930A496FF08072039B02FAF4
:1047200003F303F07F42064B1B6823F07F431343E0
:104730000B6000BF04B0704720ED00E00CED00E01E
:104740001CED00E082B0012301930BE0019B013BD3
:10475000094A52F82330002B01D1019B09E0019B4B
:1047600001330193054B1B881A46019B9A42EDD2F7
:104770000023184602B07047D050FF3FEAE3100014
:1047800000B585B003900B4601928DF80B30039B6A
:1047900000221A70039B01225A70039B9DF80B2084
:1047A0009A70039B00225A60039B00229A60039B2D
:1047B0000022DA60039B00221A61039B00229A8286
:1047C000039B0022DA82039B00221A83039B0022B0
:1047D0005A83039B002283F820200199039800F05C
:1047E000ABFA00BF05B05DF804FB00BF82B00190DA
:1047F000044A019B5360019B02225A7000BF02B021
:10480000704700BFE447FF3F00B583B00190019BB4
:10481000002B07D11348FFF72DFA01900198FFF7FD
:10482000E5FF1AE0019B9A780F4B1B689B789A4230
:104830000CD90D4B1B681846FFF748FA0A4B1B684A
:1048400001225A700198FFF7D1FF06E0019B012277
:104850005A7001990348FFF7CBF900BF03B05DF828
:1048600004FB00BFB047FF3FE447FF3F00B585B002
:1048700003460A46ADF8063013468DF80530BDF8FC
:104880000630002B19D0BDF806304FF6FF72934268
:1048900007D00C4B1B68BDF8062011461846FFF7E1
:1048A0004DFA084B1B689DF805205A700648FFF723
:1048B000E1F903900398FFF799FF00BF05B05DF899
:1048C00004FB00BFE447FF3FB047FF3F054B1B68B9
:1048D000002B01D1002302E0024B1B68DB78184655
:1048E000704700BFE447FF3F00B585B001900B461D
:1048F0008DF80330019B002B1CD1274B1B689DF8C2
:1049000003209A7000E000BF244B5B689B789DF801
:1049100003209A420CD2204B1B6819461F48FFF710
:1049200067F91D4B1B6801225A700020FFF76CFFCE
:1049300000232CE01A4B1B881A46019B9A4206D38F
:10494000019B013B174A52F82330002B01D1FF2372
:104950001DE0019B013B134A52F823300393039B54
:104960009DF803209A700C4B1A68039B9A42CAD098
:104970000398FFF7BDF9039B5B78012B06D107482D
:10498000FFF778F903900398FFF73EFF00231846DE
:1049900005B05DF804FB00BFE447FF3FB047FF3FB1
:1049A000EAE31000D050FF3F10B584B00190019BA6
:1049B000002B06D0264B1B68DB781A46019B9A42D7
:1049C0001ED1234B1B6800225A70214B1C6800F03B
:1049D00018F90346A362FFF75BFE1D4B1B68DB78EB
:1049E000013B1C4A002142F82310194B1B6800228E
:1049F000DA62174B00221A600020FFF705FF23E060
:104A0000154B1B881A46019B9A4206D3019B013B1A
:104A1000104A52F82330002B01D1FF2315E0019BEF
:104A2000013B0C4A52F8233003930398FFF74EFAE8
:104A30000398FFF779FA019B013B064A002142F8EF
:104A40002310039B0022DA620023184604B010BD35
:104A5000E447FF3FD050FF3FEAE3100000B583B0CA
:104A60000023019307E0244A019B002142F8231010
:104A7000019B01330193214B1B881A46019B9A42EB
:104A8000F1D81F4BFF22DA701E4B1B881A461C4BB5
:104A90005A621B4B1C4ADA621C4A00211848FFF775
:104AA0006FFE1B4B04221A70194B00225A60194BDF
:104AB00004221A70174B0022DA60164B00221A618A
:104AC000144B00229A82144B0D4A1A60124B1B6839
:104AD00002225A70114B00221A70104B00225A7099
:104AE0000E4B0F4A1278DA7000F09AF9FFF7EEFDDC
:104AF00000BF03B05DF804FBD050FF3FEAE31000B5
:104B0000EC47FF3FFCE31000E850FF3F714B100003
:104B1000B047FF3FC847FF3FE447FF3F2448FF3F00
:104B2000FEE3100008B5FFF781FD02460F4B1A6047
:104B30000E4B1B68002B17DB0C4B1B6803F160430B
:104B400003F56443FF221A70084B1B685B119B003E
:104B500003F1604303F56143044A126802F01F0247
:104B6000012101FA02F21A6000BF08BDE047FF3FD1
:104B700008B500F0D9F800BF08BD00BF00B583B08C
:104B8000019000F0A1F900BF03B05DF804FB00BF85
:104B900000B583B00190019B002B01D000F094F987
:104BA00000BF03B05DF804FB0349044B044A5B1AE1
:104BB0009360D160704700BF0053FF3F00D4FF3FB8
:104BC0005040FF3F0020002104460D46094803F0F5
:104BD000FFFF04F0D5FB20462946FEF799FBFFF7BF
:104BE000E3FF05480021FEF7ADFCFEF7B1FB04F042
:104BF00009F80000299010005040FF3F80F3098819
:104C00007047EFF309807047684680F309883F4892
:104C10000078C00714BF0220032080F31488704777
:104C2000DFF8ECC0EFF305831B0618BF6047EFF316
:104C30001483DB0708BF604700DF7047DFF8D4C08C
:104C4000EFF305831B0618BF6047EFF31483DB0700
:104C500008BF604700DF7047EFF30980816911F8F2
:104C6000021CF1B990E80F10E047EFF3098C8CE8D3
:104C70000700294B93E8060091420FD039B12CE987
:104C8000F00FC1F828C00CB4FFF702FD0CBC1A608D
:104C9000D2F828C0BCE8F00F8CF309886FF0020E40
:104CA000704710B51D4A1268914209D81C4C54F83F
:104CB000214090E80F10A047EFF3098C8CE80F001B
:104CC00010BDFFF74DFC144B93E80600914210D045
:104CD000EFF3098C2CE9F00FC1F828C00CB4FFF7F2
:104CE000D7FC0CBC1A60D2F828C0BCE8F00F8CF3DB
:104CF00009886FF0020E7047FFF7A2FCFFF7E3BFD1
:104D0000FFF79CFCFFF79CFCFFF7DDBFF4E310000E
:104D1000554310008D431000E447FF3F00000000A2
:104D2000FCFFFFFF00BF704708B5024B1B689847A8
:104D3000FBE700BF9440FF3F86B001900091019BCC
:104D40005B6A9B080393019BDA6A039B9B001344F5
:104D50000593059B03F00403002B02D0059B043B45
:104D60000593059B403B0593059B3C334FF08072B8
:104D70001A60059B3833009A1A600023049308E0F8
:104D8000049B9B00059A134400221A60049B013384
:104D90000493049B0D2BF3D9059B2033019AD26910
:104DA0001A60059A019B9A62019B009A1A63019B03
:104DB000DB78012B03D0019BDB6A024A1A6000BF3B
:104DC00006B07047A52E5AE282B00190019B9B6A03
:104DD0002033184602B0704700B585B001900091AD
:104DE0000198FFF7F1FF0390039B009A1A6000BF40
:104DF00005B05DF804FB00BF00B587B003900291D9
:104E000001920398FFF7E0FF0590059B029A1A6054
:104E1000059B0433019A1A6000BF07B05DF804FBDC
:104E2000044B00221A60044B1B689AB2014BDA80D3
:104E300000BF7047E852FF3FECE3100000B583B0BD
:104E4000154B1A68154B5B689A420ED0134B5B6882
:104E5000114A1360124B1B689AB20F4BDB88134444
:104E60009BB2013B9AB20C4B9A800B4B9B881A4623
:104E70000B4B1B689BB29A420AD1074B00221A6067
:104E80000648FEF7F7FE019001990448FEF7B0FED0
:104E900000BF03B05DF804FBE852FF3FB047FF3F9F
:104EA0002048FF3F00B585B0039002910192019B1D
:104EB000029A0399034801F047FC00BF05B05DF872
:104EC00004FB00BF00E4100008B572B6962000F0A5
:104ED000B3F8962000F0B0F8F8E700BF00B585B051
:104EE0000390029113468DF807300299039800F061
:104EF000A3F9029BB3F1FF3F09D00021039800F012
:104F0000D7F99DF807301946039800F0C9F900BF9A
:104F100005B05DF804FB00BF00B583B001900091BF
:104F200003220099019800F005F800BF03B05DF876
:104F300004FB00BF00B585B00390029113468DF8C5
:104F400007309DF807301A4602990398FFF7C6FF0D
:104F500000BF05B05DF804FB10B584B00190019B63
:104F60001B68DB689847019B5B685B68002B04D17A
:104F7000019B1B689B6898472CE0019B5B685B6802
:104F80001C68019B1B685B6898470346E31A002B6B
:104F900017DC019B5B685B680393019B5B68019A6C
:104FA0005268526892685A60019B5B681B68002BCC
:104FB000D9D0019B5B681B68039A526810469847DA
:104FC000D1E7019B1B681B69019A526852681268FD
:104FD0001046984704B010BD00B583B00190019B06
:104FE0001B685B6898470346184603B05DF804FBEE
:104FF000014B1846704700BF48E4100008B502484E
:10500000FFF7AAFF00BF08BD48E4100000B583B059
:1050100001900849019803F0EFFB0346184603F09E
:10502000B1FD0346184600F017F800BF03B05DF865
:1050300004FB00BF0024744900B583B00190019BBC
:105040004FF47A7202FB03F3184600F005F800BF34
:1050500003B05DF804FB00BF00B585B0019001F01E
:1050600091FA039000BF01F08DFA0246039BD21A19
:10507000019B9A42F7D300BF05B05DF804FB00BF67
:1050800082B0034600918DF807309DF90730002B60
:105090000CDA0D499DF8073003F00F03043B009A2A
:1050A000D2B21201D2B20B441A7609E007499DF937
:1050B0000730009AD2B21201D2B20B4483F8002317
:1050C00000BF02B0704700BF00ED00E000E100E06B
:1050D00082B03A4A137843F00103137000BF374B94
:1050E0005B68C3F30003DBB2012BF8D1344A1388A9
:1050F0006FF34513138000238DF8073006E09DF809
:105100000730DBB20133DBB28DF807309DF8073092
:10511000DBB2092BF3D9294A137843F00803137043
:1051200000BF264B5B68C3F34013DBB2002BF8D003
:1051300000BF224B5B68C3F30013DBB2012BF8D036
:105140001F4A138843F0200313801D4A13886FF30E
:105150000413138000238DF8073006E09DF8073014
:10516000DBB20133DBB28DF807309DF80730DBB2DC
:10517000092BF3D9114A137843F00403137000BFCD
:105180000E4B5B68C3F3C003DBB2002BF8D000BF4B
:105190000A4B5B68C3F38003DBB2012BF8D0084AEB
:1051A000138843F008031380044B4FF0FF321A6159
:1051B000024B00225A6100BF02B0704700B00140AC
:1051C00000D0014008B5164B4FF481129A60FFF7EA
:1051D0007FFF144B00221A60134B1F22C3F880205C
:1051E000114B1F22C3F8802102216FF00400FFF74A
:1051F00047FF02216FF00100FFF742FF02214FF04D
:10520000FF30FFF73DFF064B4FF020625A60074B1F
:1052100001221A60064B074A1A6000BF08BD00BF92
:1052200000ED00E0F052FF3F00E100E00C800140A3
:105230009840FF3F0048E80100B583B0019000911D
:10524000019B009A1A60009BB3F1FF3F17D00E4BF1
:105250001A68009B1340002B04D053220B490C48C2
:10526000FFF720FE0B4A0B4B1B6923F4805313619D
:10527000019B094ADA60019B084A1A6100E000BFFD
:1052800003B05DF804FB00BFF052FF3F50E4100094
:10529000ACE4100000B0014000C0004004C0004079
:1052A00082B001900B468DF8033000BF02B070470A
:1052B00082B001900B468DF803309DF80330002B2F
:1052C00002D0012B0DD019E0019B0E4A9A60019B80
:1052D0009B68019A92681268019909680A431A60EA
:1052E0000CE0019B084A9A60019B9B68019A9268B6
:1052F0001268019909680A431A6000BF00BF02B032
:10530000704700BF0CC0004008C0004082B0034698
:105310008DF8073007499DF907305B099DF8072094
:1053200002F01F02012000FA02F241F8232000BF20
:1053300002B0704700E100E082B0034600918DF8B2
:1053400007309DF90730002B0CDA0D499DF8073026
:1053500003F00F03043B009AD2B21201D2B20B4405
:105360001A7609E007499DF90730009AD2B2120176
:10537000D2B20B4483F8002300BF02B0704700BFD5
:1053800000ED00E000E100E000B587B000238DF8FB
:105390001730002304930023039300230293002378
:1053A000019385E0474B5B6801930A2304935CE01B
:1053B000444B5B680121049A01FA02F21340002B6E
:1053C00050D000230293049B0A3B072B51D801A223
:1053D00052F823F0F553100073541000735410006A
:1053E00073541000FB5310000154100007541000B8
:1053F0000D5410000023039333E00123039330E0A6
:10540000022303932DE0032303932AE004238DF862
:10541000173021E09DF817302B4A52F82330002B2B
:1054200015D02A4B1B689DF81720274951F82220D8
:10543000012110469847254B1B689DF817202249EB
:1054400051F82220022110469847012302939DF82B
:10545000173001338DF817309DF817300B2BD9D941
:1054600000BF06E0049B01330493049B112B9FD9DA
:1054700000E000BF029B002B17D1134A039B52F898
:105480002330002B11D0114B1B680F49039A51F8A0
:1054900022200121104698470C4B1B680A49039AA9
:1054A00051F82220022110469847064A019B1363B7
:1054B000044B5B68002B7FF475AF00BF07B05DF84D
:1054C00004FB00BF00C000401045FF3F4045FF3FC8
:1054D00000B585B00390029101920093029BB3F155
:1054E000FF3F02D14FF0FF3376E03D4A019B13604E
:1054F000029A039B5A60039B5B68B3F5004F18D078
:10550000B3F5004F06D8B3F5806F0AD0B3F5804FDE
:105510000BD059E0B3F5803F0FD0B3F5003F10D06A
:1055200052E0304A009B13604EE02E4A009B5360CD
:105530004AE02C4A009B936046E02A4A009BD360D5
:1055400042E0284B1B69002B03D1264A009B1361C4
:105550003AE0244B5B69002B03D1224A009B536144
:1055600032E0204B9B69002B03D11E4A009B9361C4
:105570002AE01C4BDB69002B03D11A4A009BD36144
:1055800022E0184B1B6A002B03D1164A009B1362C2
:105590001AE0144B5B6A002B03D1124A009B536242
:1055A00012E0104B9B6A002B03D10E4A009B9362C2
:1055B0000AE00C4BDB6A002B03D10A4A009BD36242
:1055C00002E04FF0FF3307E002210620FFF7B4FEB0
:1055D0000620FFF79BFE0023184605B05DF804FB8C
:1055E0004045FF3F1045FF3F82B00190019B9B6803
:1055F000034A002142F8231000BF02B0704700BFE9
:105600001045FF3F014B1846704700BF0048E801B6
:1056100084B0019000230393019B039303E000BF38
:10562000039B013B0393039B002BF8D100BF04B005
:10563000704700BF154A154B1B6923F48053136153
:10564000134A134B9B6843F00C0393600F4A0F4BB4
:105650001B6923F0805313610E4B2F229A600D4B70
:105660002F22DA60094A094B1B6923F48033136146
:10567000094B05229A60084B0522DA60034A034B66
:105680001B6943F48033136100BF704700B00140D1
:1056900000C0004000C0014000000140034A034B2D
:1056A0001B6923F08003136100BF704700B0014005
:1056B000034A137C43F08003137400BF704700BF9C
:1056C0000070004000B585B0039002910192029BEA
:1056D000082B02D1019B042B04D0612210491148F0
:1056E000FFF7E0FB104B1B6843F00C030E4A1360FE
:1056F000FFF7A0FFFFF7D2FFFFF7DAFF0B4A137C9B
:1057000043F040031374094A137C43F020031374DD
:105710000749039800F00EF800BF05B05DF804FBE0
:10572000C4E410000CE51000F052FF3F0070004090
:10573000A086010000B585B001900091FFF762FFDF
:105740000246009BB2FBF3F39B08023B0393094A1A
:10575000039BDBB203F01F03D9B2137C61F3040394
:105760001374044A039B5B09DBB2536100BF05B0AD
:105770005DF804FB0070004082B00190074B1422DA
:105780009A60064B1B6803F03403002B02D04FF0E5
:10579000FF3300E00023184602B07047007000405D
:1057A00082B00190034B15229A600023184602B084
:1057B000704700BF0070004000B587B003900291B1
:1057C000019200238DF817300023049349E02A4BFF
:1057D00012229A60C820FFF71BFF029A049B134411
:1057E0001B78132B18D1244B10229A60224B1022C5
:1057F0009A60214B10229A601F4B11229A601E4B17
:1058000010229A601C4B10229A601B4B11229A6046
:10581000194B11229A6007E01749049B5A1C049205
:10582000029A13441B788B60C820FFF7F1FE124BDD
:1058300016229A60C820FFF7EBFE00BF0E4B1B68D4
:1058400003F01003002BF9D1C820FFF7E1FE0A4B4B
:105850001B6803F00403002B03D002238DF81730DC
:1058600003E0049A019B9A42B1D39DF81730184681
:1058700007B05DF804FB00BF0070004000B587B0C2
:105880000390029101920023059300238DF81330B9
:105890003AE0224B13229A60C820FFF7B9FE09E0D4
:1058A0001E4B1B6803F00403002B03D002238DF86A
:1058B000133005E0194B1B6803F00203002BEFD0F7
:1058C000059B5A1C0592029A1344144A5268D2B29C
:1058D0001A70059A019B9A4202D2104B10229A60CC
:1058E0000E4B1B6803F08003002B03D003238DF8BD
:1058F00013300DE0094B1B6803F00403002B03D0A9
:1059000002238DF8133003E0059A019B9A42C0D31D
:105910009DF81330184607B05DF804FB0070004096
:1059200000B587B0039002910192009300238DF897
:1059300017300398FFF734FF02AB01221946039892
:10594000FFF73AFF03468DF817309DF81730002B0C
:1059500005D00398FFF710FF9DF8173019E0009B62
:105960001A4601990398FFF727FF03468DF8173071
:105970009DF81730002B05D00398FFF7FDFE9DF82A
:10598000173006E0089B002B02D00398FFF7F4FEC7
:10599000009B184607B05DF804FB00BF00B587B058
:1059A000039002910192009300238DF81730039821
:1059B000FFF7F6FE029B43F00103029302AB0122C4
:1059C00019460398FFF7F8FE03468DF817309DF847
:1059D0001730002B05D00398FFF7CEFE9DF8173047
:1059E00019E0009B1A4601990398FFF747FF034609
:1059F0008DF817309DF81730002B05D00398FFF76E
:105A0000BBFE9DF8173006E0089B002B02D00398E0
:105A1000FFF7B2FE009B184607B05DF804FB00BF1D
:105A200000B587B003AB00210A461A800A469A7077
:105A3000FFF700FEFFF732FEFFF73AFE454A137C00
:105A400043F040031374434A137C43F02003137460
:105A500041490020FFF76EFE20238DF80C3007230C
:105A60008DF80D3000238DF80E300020FFF798FEE2
:105A700003AB032219460020FFF79EFE0020FFF72C
:105A80007BFE20238DF80C3003238DF80D3000238E
:105A90008DF80E300020FFF783FE03AB032219467A
:105AA0000020FFF789FE0020FFF766FE4FF6FF702B
:105AB000FFF7AEFD20238DF80C3003238DF80D3059
:105AC000FF238DF80E300020FFF76AFE03AB0322A0
:105AD00019460020FFF770FE0020FFF74DFE1F4A19
:105AE0006B461068516803C31189927A19809A70C5
:105AF00006238DF80C30FF238DF80D30FF238DF831
:105B00000E300B230493002305931AE00020FFF7C7
:105B100047FE6A46059B1344012219460020FFF701
:105B20004BFE03AB032219460020FFF745FE002081
:105B3000FFF722FE4FF6FF70FFF76AFD059B01336A
:105B40000593059A049B9A42E0D900BF07B05DF81F
:105B500004FB00BF0070004040420F0028E5100029
:105B6000014B1846704700BF0048E80100B585B0FA
:105B7000039002910192029B012B03D0029BB3F58B
:105B8000807F06D1019B022B08D0019BB3F5007FDB
:105B900004D03A2224492548FFF784F9029B012BBF
:105BA00013D1019B022B10D1039B214A1A60039B46
:105BB00000225A601F4B1B6843F003031D4A136009
:105BC00000F068F800F0CAF81BE0029BB3F5807F94
:105BD00017D1019BB3F5007F13D1039B164A1A60BE
:105BE000039B01225A60134B1B6843F44073114A14
:105BF000136000F023F800F0A7F8039B1B68002255
:105C00005A604FF4E131039800F070F8022300224B
:105C10000821039800F0ACF8039B1B680F229A60E0
:105C200000BF05B05DF804FB34E5100080E510000E
:105C300000500040F052FF3F00800040124A124BDB
:105C40001B6923F080531361104B25221A620F4BFE
:105C500004225A620C4A0C4B1B6943F080531361B7
:105C6000094A094B1B6923F480331361084B07224F
:105C70001A62074B07225A62034A034B1B6943F41B
:105C80008033136100BF704700B0014000C0014085
:105C900000000140124A124B1B6923F0805313612C
:105CA000104B07221A600F4B04225A600C4A0C4B0F
:105CB0001B6943F080531361094A094B1B6923F4A4
:105CC00080331361084B07221A60074B07225A6082
:105CD000034A034B1B6943F48033136100BF7047D1
:105CE00000B0014000C001400000014000B585B097
:105CF00001900091FFF734FF0246009BB2FBF3F3E3
:105D00001B09ADF80E30019B1B68019A1268D2681E
:105D100042F08002DA60019B1B68BDF80E20D2B20F
:105D20001A60019B1B68BDF80E20120A92B25A60DD
:105D3000019B1B68019A1268D26802F07F02DA6048
:105D400000BF05B05DF804FB034A034B1B6923F455
:105D50008073136100BF704700B00140034A034BDA
:105D60001B6923F02003136100BF704700B001409E
:105D700000B585B003900291009313468DF807306B
:105D8000009B012B07D0009B022B04D0BA22344980
:105D90003448FFF787F802230093029B042B02DDAF
:105DA000029B082B04DDC2222D492F48FFF77AF809
:105DB0009DF80730002B14D09DF80730012B10D030
:105DC0009DF80730022B0CD09DF80730032B08D02C
:105DD0009DF80730042B04D0C62221492348FFF741
:105DE00061F8029B053B0293009B013B00939DF8E9
:105DF0000730042B20D801A252F823F0115E1000C6
:105E0000195E1000215E1000295E1000315E100046
:105E100000238DF8073013E001238DF807300FE0E1
:105E200002238DF807300BE005238DF8073007E0DB
:105E300007238DF8073003E000238DF8073000BFFB
:105E4000039B1B68009A9100029A11439DF807205A
:105E5000D2000A43DA6000BF05B05DF804FB00BF62
:105E600034E51000B8E51000E0E5100004E610008D
:105E700082B00190019B1B685B69C3F30003DBB236
:105E8000184602B0704700BF82B00190019B1B68AA
:105E90005B69C3F34013DBB2184602B0704700BF22
:105EA00000B583B00190009100BF0198FFF7ECFFAF
:105EB0000346002BF9D0019B1B68009A1A6000BFB3
:105EC00003B05DF804FB00BF00B583B0019000BFD4
:105ED0000198FFF7CDFF0346002BF9D0019B1B680B
:105EE0001B68184603B05DF804FB00BF84B0039044
:105EF00002910192054A029B1360039B5B6804496F
:105F0000019A41F8232000BF04B070474845FF3F85
:105F10004C45FF3F00B583B0034600918DF8073034
:105F2000134A009B52F82330002B1DD09DF80730F8
:105F300003F04003002B08D00E4B1B680C49009A5D
:105F400051F822200121104698479DF8073003F0B0
:105F50000103002B08D0074B1B680549009A51F834
:105F6000222000211046984700BF03B05DF804FBD3
:105F70004C45FF3F4845FF3F00B583B01B4B5B6975
:105F80008DF8063000238DF80730184B5B6803F05E
:105F90000203002B0AD09DF8063003F04003DAB26A
:105FA0009DF807301343DBB28DF807300F4B5B6869
:105FB00003F00103002B0AD09DF8063003F0010323
:105FC000DAB29DF807301343DBB28DF807309DF845
:105FD00006209DF807301340DBB200211846FFF77A
:105FE00099FF00BF03B05DF804FB00BF0050004004
:105FF000014B1846704700BF0048E80182B001908D
:10600000019B1A68137B6FF30003137300BF02B088
:10601000704700BF82B00190019B1A68137B43F068
:106020000103137300BF02B0704700BF00B585B015
:106030000390029101920093029B202B03D0029BBC
:10604000B3F5004F0DD1019B402B03D0019BB3F55D
:10605000803F06D1009B102B08D0009BB3F5804FEA
:1060600004D0362226492748FEF71CFF029B202B2E
:1060700017D1019B402B14D1009B102B11D1039BF6
:10608000214A1A60214B1B6843F070031F4A1360BA
:1060900000F07CF81E4A1E4B1B6923F0400313617D
:1060A0001CE0029BB3F5004F18D1019BB3F5803F74
:1060B00014D1009BB3F5804F10D1039B154A1A6091
:1060C000124B1B6843F4E033104A136000F024F8CD
:1060D0000F4A0F4B1B6923F4007313610398FFF7FA
:1060E0008DFF039B1B6804229A62039B1B6804229A
:1060F000DA620398FFF78EFF00BF05B05DF804FB7E
:106100008CE61000D4E6100000600040F052FF3F23
:1061100000B0014000900040184A184B1B6923F45E
:1061200080531361164A164B9B6843F440439360B7
:10613000134A134BDB6843F48033D3600F4A0F4B91
:106140001B6923F0805313610E4B07229A630D4B9A
:106150000722DA630B4B07221A64084A074B1B69B4
:1061600023F480331361084B06229A63064B062200
:10617000DA63054B06221A6400BF704700B0014085
:1061800000C0004000C0014000000140184A184B08
:106190001B6923F480531361164A164B9B6843F026
:1061A00030039360134A134BDB6843F04003D36022
:1061B0000F4A0F4B1B6923F0805313610E4B0722CC
:1061C0001A610D4B07225A610B4B07229A61084A4C
:1061D000074B1B6923F480331361084B06221A61B5
:1061E000064B06225A61054B06229A6100BF704792
:1061F00000B0014000C0004000C00140000001406C
:1062000000B587B003900291019200930398FFF7C5
:10621000F5FE029B082B05D0029B102B02D0029B9F
:10622000202B05D1019B002B02DB019B032B04DDFE
:10623000A4223A493A48FEF735FE0023059300238D
:106240000493029B102B06D0202B07D0082B08D1DB
:106250000023029305E00123029302E0022302934C
:1062600000BF039B1A68029BDBB203F00303D9B2A1
:10627000137B61F387131373039B1A68137B43F03B
:1062800020031373019B032B1ED801A252F823F0A5
:10629000A1621000AB621000B5621000BF62100076
:1062A00000230593002304930EE0002305930123AC
:1062B000049309E0012305930023049304E00123E0
:1062C00005930123049300BF039B1A68059BDBB26F
:1062D00003F00103D9B2137B61F304131373039B1F
:1062E0001A68049BDBB203F00103D9B2137B61F39C
:1062F000C3031373039B1A68137B43F004031373E4
:10630000039B1A68137B43F0020313730398FFF790
:1063100081FE00BF07B05DF804FB00BF8CE61000F3
:1063200038E7100000B585B0019000910198FFF7A3
:1063300065FEFFF75DFE0246009BB2FBF3F35B08D0
:10634000013B0393019B1B68039A9A600198FFF736
:1063500061FE00BF05B05DF804FB00BF82B0019094
:10636000009100BF019B1B681B69C3F38003DBB274
:10637000002BF7D0019B1B68009A1A6000BF019B9D
:106380001B681B69C3F30003DBB2012BF7D000BF0E
:1063900002B0704782B0019000BF019B1B681B696F
:1063A000C3F34013DBB2012BF7D0019B1B685B6882
:1063B000184602B0704700BF00B583B0019000914D
:1063C00000990198FFF7CAFF0198FFF7E3FF034622
:1063D000184603B05DF804FB82B003468DF8073021
:1063E00007499DF907305B099DF8072002F01F025D
:1063F000012000FA02F241F8232000BF02B07047EA
:1064000000E100E082B003468DF8073008499DF9AD
:1064100007305B099DF8072002F01F02012000FAF7
:1064200002F2203341F8232000BF02B0704700BFC2
:1064300000E100E082B003468DF8073008499DF97D
:1064400007305B099DF8072002F01F02012000FAC7
:1064500002F2403341F8232000BF02B0704700BF72
:1064600000E100E082B003468DF8073008499DF94D
:1064700007305B099DF8072002F01F02012000FA97
:1064800002F2603341F8232000BF02B0704700BF22
:1064900000E100E082B0034600918DF807309DF9DD
:1064A0000730002B0CDA0D499DF8073003F00F037D
:1064B000043B009AD2B21201D2B20B441A7609E020
:1064C00007499DF90730009AD2B21201D2B20B44AB
:1064D00083F8002300BF02B0704700BF00ED00E06A
:1064E00000E100E04FF080430022DA60034B1B68BC
:1064F0000133024A136000BF704700BF5C45FF3F95
:1065000008B51D4B1B68002B33D11B4B01221A60B1
:106510001A4A1A4B1B6923F001031361174A174BE0
:106520001B6923F0020313614FF080434FF6FF72A3
:106530001A604FF08043D4229A60114B4FF6FF72DD
:106540001A600F4B54229A600020FFF78BFF012046
:10655000FFF788FF01210020FFF79CFF02210120A7
:10656000FFF798FF0020FFF737FF0120FFF734FF08
:1065700000E000BF08BD00BF5445FF3F00B0014030
:106580000010004000B583B01C4B1B68002B01D1EC
:10659000FFF7B6FF4FF080435B680093009BC3F5A5
:1065A0007F43FF3301930020FFF72CFF4FF0804320
:1065B0009B68C3F30023DBB2002B11D04FF0804364
:1065C0000022DA600E4B1B6801330D4A13604FF056
:1065D00080435B680093009BC3F57F43FF330193C7
:1065E000074B1B681B04019A134301930020FFF71C
:1065F000F3FE019B184603B05DF804FB5445FF3FD2
:106600005C45FF3F034A13896FF3C713138100BF33
:10661000704700BF00100040024B0022DA6000BF4C
:10662000704700BF0010004082B00190074A1389F4
:106630006FF3C7131381054A019B1360034A138943
:1066400043F08003138100BF02B070470010004088
:1066500008B50D4B0022DA600C4B1B68002B09DDDE
:106660004FF6FF70FFF7E0FF084B1B68013B074A3E
:10667000136006E0044A13896FF3C7131381FEF712
:10668000BDFC00BF08BD00BF001000405845FF3FE3
:1066900000B585B00190FFF775FF0246019B9B1A7C
:1066A0000393039B002B03DC0120FFF7C3FE07E0ED
:1066B000039B1B14044A1360039B1846FFF7B4FFA7
:1066C00005B05DF804FB00BF5845FF3F00B583B03F
:1066D000019000910099019800F02AF8019B18465A
:1066E00003B05DF804FB00BF00B583B00190019BCF
:1066F0005B69002B07D1019B1B68002B03D0019B1A
:106700001B68984711E0019B5B69002B0CD0019B33
:106710001B68002B08D0019B5B69019A1068019AE5
:1067200004321146984700E000BF03B05DF804FB57
:1067300082B001900091019B009A1A60019B002297
:106740005A6100BF02B070470FB400B599B01BABDF
:10675000179301A800234FF400724FF4807100F0EA
:1067600045FD01AB4033179A1A99184600F0ACFF6B
:10677000012002F047FA00BF84B003900291134653
:106780008DF807300F4A039B1A60039B00225A6062
:10679000039B029A9A60039B9DF807201A73029B41
:1067A000002B07D0084B1A68039B5A60064A039BCC
:1067B000136002E0039B00225A60039B184604B05A
:1067C000704700BFACE710006045FF3F00B585B0E3
:1067D0000190164A019B1A60019B9B68002B19D0FF
:1067E000134B1A68019B9A4204D1019B5B68104AC3
:1067F00013600FE00E4B1B680393039B5A68019BC9
:106800009A4203D0039B5B680393F6E7019B5A68A7
:10681000039B5A600023002B02D0019801F029F855
:10682000019B184605B05DF804FB00BFACE7100003
:106830006045FF3F00B583B001900198FFF7C6FFA8
:10684000019801F016F8019B184603B05DF804FBAF
:1068500000B585B001900091134B1B680393039B17
:10686000002B1CD0039B9B68002B14D0039B9B68C0
:10687000009A0199184604F056FA0346002B0AD1F3
:10688000039B9B68184604F046FA0246009B9A4216
:1068900001D1039B04E0039B5B680393DFE70023C4
:1068A000184605B05DF804FB6045FF3F82B00190DB
:1068B000019B1B7B184602B0704700BF00B585B036
:1068C0000190019B1B6810331B6801220021019875
:1068D00098470390039BB3F1FF3F02D14FF0FF3382
:1068E00011E0019B1B6810331B68022200210198F4
:1068F00098470290019B1B6810331B680022039984
:1069000001989847029B184605B05DF804FB00BF4C
:1069100082B00190034A019B1A60019B184602B0A5
:10692000704700BF30E8100000B583B001900091BF
:10693000019B1846FFF7ECFF019B043300220099EE
:106940001846FFF719FF054A019B1A60044A019B8C
:106950005A60019B184603B05DF804FBBCE71000C9
:10696000E8E7100000B583B001900D4A019B1A6062
:106970000C4A019B5A60019B04331846FFF726FF1F
:10698000019B184600F0E0F90023002B02D001988B
:1069900000F06FFF019B184603B05DF804FB00BFD9
:1069A000BCE71000E8E7100000B587B00190009147
:1069B000019B00221A60019B00225A60009B1B78F9
:1069C0002F2B31D1009B01331B78002B2CD0009B47
:1069D00001330493019B049A1A6000230593019BE1
:1069E0001B681B788DF80F309DF80F302F2B05D1C9
:1069F000019B1B685A1C019B1A600DE09DF80F302B
:106A0000002B08D0059B01330593019B1B685A1C82
:106A1000019B1A60E3E700BF059B19460498FFF746
:106A200017FF0246019B5A60019B184607B05DF8AC
:106A300004FB00BF82B00190019B1B68184602B0A6
:106A4000704700BF00B583B00190019B5B68002BCD
:106A500001D100230AE0019B5B681846FFF726FF7F
:106A60000346012B0CBF01230023DBB2184603B001
:106A70005DF804FB00B583B001900198FFF7E2FFD9
:106A80000346002B02D0019B5B6800E00023184600
:106A900003B05DF804FB00BF00B583B00190019B1B
:106AA0005B68002B01D100230AE0019B5B6818465C
:106AB000FFF7FCFE0346002B0CBF01230023DBB2D3
:106AC000184603B05DF804FB00B583B0019001984F
:106AD000FFF7E2FF0346002B09D0019B5B68002B08
:106AE00003D0019B5B68043B02E0002300E000232D
:106AF000184603B05DF804FB82B00190019B5B680F
:106B0000002B14BF01230023DBB2184602B07047EC
:106B100000B585B0039002910192039B00221A6098
:106B2000039B084A5A60039B019A02991846FEF794
:106B3000C9FD054A039B1360039B184605B05DF829
:106B400004FB00BFA08601006445FF3F00B583B091
:106B500001900091019B009A5A60019A019B5B6829
:106B600019461046FEF7E6FD034A019B136000BF7D
:106B700003B05DF804FB00BF6445FF3F00B583B080
:106B80000190094B1A68019B9A4209D0019A019B16
:106B90005B6819461046FEF7CDFD034A019B136062
:106BA00000BF03B05DF804FB6445FF3F00B589B04A
:106BB00005900491039202930598FFF7DFFF9DF87B
:106BC0002830002B01D0002300E001230793059813
:106BD000079B0093029B039A0499FEF7A1FE06907F
:106BE000029A069B9A4214BF01230023DBB2184687
:106BF00009B05DF804FB00BF00B589B005900491B1
:106C0000039202930598FFF7B9FF9DF82830002BF7
:106C100001D0002300E0012307930598079B009310
:106C2000029B039A0499FEF7B9FE0690029A069B0E
:106C30009A4214BF01230023DBB2184609B05DF865
:106C400004FB00BF00B583B001900091194A019B7D
:106C50001A60019B043300221A605A609A60DA605D
:106C60001A615A61019B0022DA61019B00221A62BB
:106C7000019B00225A62019B283300211846FFF72E
:106C800025FD019B403300211846FFF71FFD019BA6
:106C900003F11C00019B084A0099FEF719FC019BB7
:106CA000043300991846FEF737F9019B184603B0E4
:106CB0005DF804FBF8E71000096D100000B583B023
:106CC0000190094A019B1A60019B1C331846FEF78C
:106CD0008BFC0023002B02D0019800F0CAFD019B21
:106CE000184603B05DF804FBF8E7100000B583B068
:106CF00001900198FFF7E2FF019800F0BAFD019BB7
:106D0000184603B05DF804FB00B585B001900B4652
:106D10008DF80330019B03939DF80330012B03D0C2
:106D2000022B07D0002B0BE0039B28331846FFF7FC
:106D3000DBFC05E0039B40331846FFF7D5FC00BFA2
:106D400000BF05B05DF804FB00B585B00190124AA4
:106D5000019B1A60002303934022039B9A420FD9A0
:106D60000E4A039B52F82320019B9A4204D10B4AFE
:106D7000039B002142F82310039B01330393EBE7AD
:106D80000023002B02D0019800F073FD019B1846F0
:106D900005B05DF804FB00BF30E810006845FF3F18
:106DA00008B5074B1B68002B07D14FF0FF324FF09F
:106DB000FF310448FEF7DAFE00E000BF08BD00BF67
:106DC0004445FF3FF452FF3F84B00190019B039381
:106DD000039B23F480330393039B184604B070474E
:106DE00010B58AB0019000914849019803F089FFDD
:106DF0000346002B03D1FFF7D3FF002383E0444970
:106E0000019803F07EFF0346002B03D1FFF7C8FF74
:106E1000012378E03F49019803F073FF0346002BFC
:106E200003D1FFF7BDFF02236DE000230993402249
:106E3000099B9A420AD9384A099B52F82330002B01
:106E400003D0099B01330993F1E700BF4022099B5E
:106E50009A4202D84FF0FF3355E0019B1B783A2B42
:106E600008D105AB1A462D49019803F0DBFE059BBE
:106E700008933BE003AB01991846FFF795FD03AB80
:106E80001846FFF739FE034683F00103DBB2002BFF
:106E900002D04FF0FF3336E003AB1846FFF7FCFD9E
:106EA0000346002B05D003AB1846FFF70DFE0890F4
:106EB0001CE003AB1846FFF7DDFD0790079B002B96
:106EC00002D14FF0FF331EE00098FFF77DFF0690E0
:106ED000079B1B6808331C6803AB1846FFF7AAFD25
:106EE0000346069A19460798A0470890089B002B6E
:106EF00002D14FF0FF3306E00749099B089A41F899
:106F00002320099B033318460AB010BD00E8100087
:106F100008E8100010E810006845FF3F18E810006E
:106F200000B585B00190019B022B01DC002318E025
:106F3000019B033B0D4A52F823300393019B033B13
:106F40000A4A002142F82310039B002B02D14FF084
:106F5000FF3306E0039B1B6804331B6803989847C4
:106F60000346184605B05DF804FB00BF6845FF3FC7
:106F700000B589B00390029101920093039B022B0C
:106F80001ADC1A4B1B68002B01D1FFF709FF002305
:106F90000693069A019B9A420BD2029A069B1344CF
:106FA0001B7819461248FEF77BFF069B01330693B8
:106FB000EFE7019B079313E0039B033B0D4A52F855
:106FC00023300593059B002B02D14FF0FF3308E0DF
:106FD000059B1B681B68019A0299059898470790C2
:106FE000079B184609B05DF804FB00BF4445FF3F0E
:106FF000F452FF3F6845FF3F00B587B00390029110
:1070000001920093039B022B0FDC154B1B68002B96
:1070100001D1FFF7C5FE1348FEF756FF0346DAB26B
:10702000029B1A700123059314E0039B033B0E4A55
:1070300052F823300493049B002B02D14FF0FF330E
:1070400009E0049B1B6808331B68019A02990498A5
:1070500098470590059B184607B05DF804FB00BFF4
:107060004445FF3FF452FF3F6845FF3F00B585B000
:107070000190019B022B01DC012312E0019B033BE9
:107080000A4A52F823300393039B002B02D14FF09E
:10709000FF3306E0039B1B680C331B68039898477B
:1070A0000346184605B05DF804FB00BF6845FF3F86
:1070B00000B587B0039002910192039B022B01DC83
:1070C000002314E0039B033B0B4A52F82330059343
:1070D000059B002B02D14FF0FF3308E0059B1B6896
:1070E00010331B68019A0299059898470346184681
:1070F00007B05DF804FB00BF6845FF3F00B583B0F3
:1071000001900091019B012B05D0019B022B02D025
:10711000019B002B05D1009B4FF400525A600023C5
:1071200006E001F069FD0246092313604FF0FF33CA
:10713000184603B05DF804FB00BF704700BF7047FE
:1071400008B5FFF7FBFFFFF7F7FFFBF77FF80346F4
:10715000184608BD10B485B00190114B1B6803930D
:107160000F4B1A68019B13440293EFF308831C46EC
:1071700023461A46029B9A4294BF01230023DBB2A6
:10718000002B05D0074B0C221A604FF0FF3303E0B1
:10719000034A029B1360039B184605B010BC70475E
:1071A0009C40FF3FFC52FF3F00B583B00190019B24
:1071B000002B01D0FDF788FEFEE700BF00B583B0CD
:1071C00001900021019803F075FC00BF03B05DF849
:1071D00004FB00BF00B583B00190019801F06EFE82
:1071E0000346184603B05DF804FB00BF00B585B048
:1071F0000390029101920093039B019A0299184611
:1072000000F03CF8039B40330099184600F03EF92B
:10721000064A039B1A60064A039B1A64054A039BAD
:107220005A64039B184605B05DF804FB5CE8100047
:1072300074E81000A8E8100000B583B00190019B2D
:10724000184600F099F80346184603B05DF804FBB1
:10725000A0F14000FFF7F0BF00B583B001900091AE
:10726000019B0099184600F095F80346184603B0B4
:107270005DF804FBA0F14000FFF7EEBF30B585B02C
:10728000039002910192164A039B1A60039B00220D
:107290005A60039B00229A60039B0C3301241D4615
:1072A000B4F1FF3F06D000212846FFF70FFA18354A
:1072B000013CF5E7039B4FF41652DA63039B04335A
:1072C000019A02991846FEF751FC039B0433039A76
:1072D00004491846FEF70AFE039B184605B030BD68
:1072E000D0E210004573100000B583B0019000910A
:1072F000019B043300991846FEF7F8FC019B009AA5
:10730000DA6300BF03B05DF804FB00BF00B583B0D3
:107310000190019B04331846FEF7AAFD0346184668
:1073200003B05DF804FB00BF00B583B00190019B82
:1073300004331846FEF7A8FD0346184603B05DF86F
:1073400004FB00BF00B585B001900B468DF80330FB
:10735000019B03939DF8032013465B001344DB005D
:107360000833039A134404331846FFF7BDF900BFEE
:1073700005B05DF804FB00BF00B583B00190019B30
:1073800004331846FEF7A0FD0346184603B05DF827
:1073900004FB00BF00B583B001900091019B043352
:1073A00000991846FEF77CFD009B184603B05DF877
:1073B00004FB00BF00B587B00590049103920293CF
:1073C000164A059B1A60059B00225A60059B0822FD
:1073D0009A60059B0022DA60059B114A1A61059BA1
:1073E000181D089B0093029B039A0499FEF71EFE4A
:1073F000059B181D059B9968059BDA680023FEF71D
:10740000FFFE059B1A1D059B1B6919461046FEF7DA
:1074100089FF059B184607B05DF804FBB8E810002B
:1074200040420F0000B583B001900E4B1A68019BDB
:107430009A4213D0019B181D019B9968019BDA6841
:107440000023FEF7DDFE019B1A1D019B1B691946F7
:107450001046FEF767FF034A019B136000BF03B0AD
:107460005DF804FB6846FF3F00B583B001900091D2
:107470000198FFF7D7FF019B043300991846FEF7E8
:107480009BFF0346184603B05DF804FB00B587B0C8
:1074900001900091019B00991846FFF745FA104AA8
:1074A000019B1A600F4A019B5A60019B00225A619E
:1074B00003AB019A0C49184603F090FB03AB0B4950
:1074C000184601F005FE0246019B5A61019B5B696B
:1074D0001846FFF773FE019B184607B05DF804FBE2
:1074E000D4E8100008E91000C4E81000C8E8100053
:1074F00000B583B001900D4A019B1A600C4A019BB4
:107500005A60019B5B69184601F0E2FB019B18463B
:10751000FFF728FA0023002B02D0019800F0A9F908
:10752000019B184603B05DF804FB00BFD4E81000CF
:1075300008E9100000B583B001900091019B5B69E0
:10754000184601F07DFC019B5B691946009801F02B
:10755000EBFD0346184603B05DF804FB00B583B0AD
:1075600001900091019B5B69184601F069FC019B49
:107570005B691946009801F033FE0346184603B0D4
:107580005DF804FB00B583B00190019B5B69184670
:1075900001F056FC019B5B691846FFF71BFE034692
:1075A000184603B05DF804FB82B001900023184632
:1075B00002B0704700B587B0039002910192029B20
:1075C0000593059A019B13440493059A049B9A42E0
:1075D00015D0039B1B6824331A68059B591C059121
:1075E0001B781946039890470346B3F1FF3F0CBF41
:1075F00001230023DBB2002B00D1E6E700BF059A90
:10760000029BD31A184607B05DF804FB00B589B099
:10761000039002910192029B0793079A019B1344E6
:107620000693079A069B9A4212D0039B1B68283345
:107630001B68039898470590059BB3F1FF3F06D060
:10764000079B5A1C0792059AD2B21A70E9E700BF4D
:10765000079A029BD31A184609B05DF804FB00BFD5
:1076600084B00390029101920023184604B0704741
:1076700082B001900023184602B0704782B001909A
:107680000023184602B0704782B0019000231846CC
:1076900002B070470EB400B584B0019006AB0293FF
:1076A000019B5B69184601F0CBFB019B5B69029A69
:1076B0000599184602F012F90390039B184604B08E
:1076C0005DF804EB03B0704700B587B003900291FA
:1076D0000192039B5B69184601F0B2FB039B5B6957
:1076E000019A0299184602F0F9F80590059B184690
:1076F00007B05DF804FB00BF00B583B00190019BAB
:1077000000221A60019B00225A60019B00229A60AD
:10771000FDF76EFC0246019BDA60019800F06AF802
:10772000019B184603B05DF804FB00BF00B583B0B1
:107730000190019B1B68002B0AD1019BDB68184656
:10774000FDF74AFC0246019B5A60019B01221A6028
:1077500000BF03B05DF804FB00B583B00190019851
:1077600000F032F80246019B9B681A44019B9A6024
:10777000019B00221A6000BF03B05DF804FB00BF4C
:1077800010B582B00190019B9C68019800F01CF834
:1077900003462344184602B010BD00BF00B583B0B5
:1077A00001900198FFF7ECFF0346184600F0D0FF68
:1077B00003460449184601F0D3F80346184603B0BF
:1077C0005DF804FB0024744900B583B00190019B6F
:1077D0001B68002B09D0019BDB681846FDF7FCFBFA
:1077E0000246019B5B68D31A00E00023184603B0F1
:1077F0005DF804FB00B583B00190019BDB6818467F
:10780000FDF7EAFB0246019B5A60019B00229A6049
:1078100000BF03B05DF804FB0849094A094B9A42CE
:10782000BEBF51F8040B42F8040BF8E7064880F39A
:1078300008880648804706480047000024EE1000EC
:107840000040FF3F5C41FF3F00D8FF3FC5511000A3
:1078500069261000FEE7FEE7FEE7FEE7FEE7FEE72B
:10786000FEE7FEE7FEE7FEE70B460146184601F09D
:10787000B5B9FAF73FBF10B5002814BF044601247C
:107880002046FAF729FF30B900F086F808B9FAF770
:107890003DFF8047F4E710BD704770470AB101F023
:1078A00012BE704708B50B68B3F1004F02D30A4807
:1078B00000F07DF8934209D95200934206D2B2F10A
:1078C000004F2ABF6FF000430A600B600868BDE8F4
:1078D00008400130FFF7CFBF10E91000034653F80E
:1078E000080B984201D0FFF7C4BF7047012A10B5BA
:1078F00002D10A78027010BDFFF7D0FF10BD08B5A5
:10790000521AFFF7F3FF08BD00F1080202600022DF
:1079100042600272704710B50446FFF7DFFF204651
:1079200010BD000073B5044616460D4601B9BAB93C
:10793000731B0F2B019307D9002201A92046FFF7E3
:10794000B1FF019B2060A360324629462068FFF703
:10795000D6FF019B226800216360D15402B070BD44
:10796000014800F021F800BF6BEA100038B500F1C3
:107970000803044603600D4621B1084603F0CBF925
:107980002A1801E04FF0FF3220464FF0000329464D
:10799000FFF7C8FF204638BD024B1868BFF35F8F62
:1079A000704700BF6C46FF3F08B5FAF7AFFE08B559
:1079B000FAF7ACFE244B1A68D0075CBF01221A60AC
:1079C000224B1A68D1075CBF01221A60204B1A684B
:1079D000D2075CBF01221A601E4B1A68D0075CBF39
:1079E00001221A601C4B1A68D1075CBF01221A6081
:1079F0001A4B1A68D2075CBF01221A60184B1A682A
:107A0000D0075CBF01221A60164B1A68D1075CBF11
:107A100001221A60144B1A68D2075CBF01221A6057
:107A2000124B1A68D0075CBF01221A60104B1A680B
:107A3000D1075CBF01221A600E4B1A68D2075CBFE7
:107A400001221A60704700BF9C46FF3F9846FF3FE7
:107A50009446FF3F9046FF3F8C46FF3F8846FF3FDE
:107A60008446FF3F8046FF3F7C46FF3F7846FF3F0E
:107A70007446FF3F7046FF3F184B1A68D1075CBF42
:107A800001221A60164B1A68D2075CBF01221A60E5
:107A9000144B1A68D0075CBF01221A60124B1A6897
:107AA000D1075CBF01221A60104B1A68D2075CBF75
:107AB00001221A600E4B1A68D0075CBF01221A60BF
:107AC0000C4B1A68D1075CBF01221A600A4B1A6876
:107AD000D2075CBF01221A60704700BFBC46FF3F5F
